:020000040800F2
:1000000088090020AD450008890300088B0300081B
:100010008F03000893030008970300080000000006
:100020000000000000000000000000009D03000828
:100030009B030008000000009F030008A1030008C4
:10004000A3030008A5030008A7030008A9030008EC
:10005000AB030008AD030008AF030008B1030008BC
:10006000B3030008B5030008B7030008B90300088C
:10007000BB030008BD030008BF030008C10300085C
:10008000C3030008C5030008C7030008C90300082C
:10009000CB030008CD030008CF030008D1030008FC
:1000A000D3030008D5030008D7030008D9030008CC
:1000B000DB030008E7030008FF0300080104000851
:1000C00003040008050400080704000809040008E8
:1000D0000B0400080D0400080F04000811040008B8
:1000E0001304000815040008170400081904000888
:1000F0001B0400081D0400081F0400082104000858
:100100002304000825040008270400082904000827
:100110002B0400082D0400082F04000831040008F7
:1001200033040008350400083704000839040008C7
:1001300000F002F800F03FF80AA090E8000C8244BA
:100140008344AAF10107DA4501D100F034F8AFF297
:10015000090EBAE80F0013F0010F18BFFB1A43F0A5
:10016000010318470854000028540000103A24BF27
:1001700078C878C1FAD8520724BF30C830C144BF0C
:1001800004680C607047000000230024002500264E
:10019000103A28BF78C1FBD8520728BF30C148BFEA
:1001A0000B607047782904F05582002070471FB516
:1001B0001FBD10B510BD04F023FB1146FFF7F7FF7C
:1001C00000F03DF804F041FB03B4FFF7F2FF03BC7D
:1001D00003F0F8FB10B501F081FD4FF4803001F021
:1001E0009CFD00BF312001F0BBFD0028FAD010209B
:1001F00000F070FF022000F057FF002001F015FE14
:10020000002001F024FE4FF4806001F017FE4FF44F
:10021000E0114FF4803001F0EBFD012001F0F4FD1E
:1002200000BF392001F09CFD0028FAD0022001F027
:10023000EEFD00BF01F0F4FD0828FBD110BD92B027
:100240000024FFF7C7FF482003F064FB03F010FC15
:1002500004F004F949480E9000208DF83D00042078
:100260008DF83C0008208DF83E0000208DF83F00FE
:1002700012210DA801733421417356218173782115
:10028000C173AB210174CD214174EF2181740DAA9A
:10029000927CDDE90D10CDE90424CDE906100DA80E
:1002A000417C007C0DAAD27B0DAB9B7BCDE900325B
:1002B000CDE902010DA8437B027B9DF83F10304839
:1002C00004F088F90DA800F014FC044600BF204695
:1002D00000F0B8FC0128FAD10DAA927CDDE90D10DE
:1002E000CDE90424CDE906100DA8417C027CC07B39
:1002F0000DAB9B7BCDE90030CDE902210DA8437BFE
:10030000027B9DF83F101E4804F064F900BF0020F6
:1003100000F018FD0028FAD0002009908DF8280080
:100320008DF82A008DF82B00002108A80173417375
:100330008173C17301744174817408A9002000F0B5
:1003400014FD08AA927C08AB5B7CDDE90810CDE9BE
:100350000332CDE9051008A8007C08A9C97B08AACA
:10036000927BCDE90021029008A8437B027B9DF897
:100370002B10044804F02EF900BFFEE70000AAAAE3
:10038000CC5400081C550008704700BFFEE700BFB2
:10039000FEE700BFFEE700BFFEE77047704770470B
:1003A0007047704770477047704770477047704795
:1003B0007047704770477047704770477047704785
:1003C0007047704770477047704770477047704775
:1003D0007047704770477047704710B50121880714
:1003E00002F029FC10BD10B50121144802F023FCD5
:1003F00003F0DAFC4FF07E501149886010BD704761
:100400007047704770477047704770477047704734
:100410007047704770477047704770477047704724
:100420007047704770477047704770477047704714
:1004300070477047704770477047000000040040E5
:100440002800002010B50446F748204430B1B0F52C
:10045000806F0DD0B0F5C05F1ED113E001214802BE
:1004600001F0C6FD00214FF4007001F0C1FD14E061
:100470000121880201F0BCFD00214FF4806001F0F1
:10048000B7FD0AE00121C80301F0B2FD00214FF4DD
:10049000004001F0ADFD00E000BF00BF10BD30B571
:1004A0000246002000235068E04C20400D790C6883
:1004B00044EA0524204350609068DD4C2040D1E997
:1004C00002542C434D7944EA450420439060D06A9D
:1004D00020F470000C7C641E1C43E3B240EA03501D
:1004E000D06230BD00210160017141718160C16045
:1004F00001210174704721B1826842F001028260DB
:1005000003E0826822F001028260704721B18268B4
:1005100042F48072826003E0826822F4807282601A
:10052000704710B50023CBB21AB144681C43446035
:1005300002E044689C43446010BD816841F00801BA
:1005400081607047014600208A6802F008020AB103
:10055000012000E000207047816841F004018160C3
:100560007047014600208A6802F004020AB10120A7
:1005700000E00020704721B1826842F4A00282604E
:1005800003E0826822F4A0028260704701460020E6
:100590008A6802F480020AB1012000E0002070475E
:1005A00010B50A4600210023416821F46041531E22
:1005B00041EA4331416010BD21B1426842F400621A
:1005C000426003E0426822F4006242607047F0B586
:1005D00004460D4600200021092D11DDE068A5F13B
:1005E0000A0606EB4607072606FA07F18843A5F137
:1005F0000A0606EB460603FA06F10843E0600CE043
:10060000206905EB4507072606FA07F1884305EB45
:10061000450603FA06F108432061072A0FDA606BEA
:10062000561E06EB86071F2606FA07F18843561E5C
:1006300006EB860605FA06F10843606322E00D2A00
:100640000FDA206BD61F06EB86071F2606FA07F186
:100650008843D61F06EB860605FA06F10843206399
:1006600010E0E06AA2F10D0606EB86071F2606FAE7
:1006700007F18843A2F10D0606EB860605FA06F19E
:100680000843E062F0BD21B1826842F480128260CA
:1006900003E0826822F48012826070470146C86CD1
:1006A00080B2704763480068704721B1426842F4E5
:1006B0008062426003E0426822F4806242607047D8
:1006C00021B1426842F48052426003E0426822F461
:1006D0008052426070470A460021816821F4E0415F
:1006E00011438160704721B1826842F40042826008
:1006F00003E0826822F400428260704721B1826880
:1007000042F40212826003E0826822F402128260E4
:100710007047014600208A6802F400120AB10120E5
:1007200000E000207047F0B5044615460020002286
:100730000026092911DDE068A1F10A0707EB470C43
:10074000072707FA0CF29043A1F10A0707EB4707C6
:1007500003FA07F21043E0600CE0206901EB410C62
:10076000072707FA0CF2904301EB410703FA07F25F
:1007700010432061A06BC0F30156EF1C06F1010C81
:10078000A7EB0C0707EB870C1F2707FA0CF2904327
:10079000EF1C06F1010CA7EB0C0707EB870701FA2A
:1007A00007F21043A063F0BD10B50A4600210023F4
:1007B000816B21F44011531E41EA0351816310BD46
:1007C0004250704702465018806A80B270470A460D
:1007D00000214168184B1940114341607047416244
:1007E000826270470A460021416821F01F011143CF
:1007F0004160704740B10F494439096841F4000134
:100800000C4A443A116007E00A494439096821F466
:100810000001084A443A11607047024600201368FC
:100820000B405BB101200AE000DCFEBFFFFEF0FFE1
:10083000FDF7F1FF4C240140FFFD3FFF0020704712
:10084000CA430260704770B50246002000230024AE
:100850000B125568CEB205EA060415681D4015B1A5
:100860000CB1012000E0002070BD00220A12D34329
:100870000360704710B50121480601F0C6FB002156
:100880004FF0007001F0C1FB10BD10B50146002013
:100890000123FA4C2360231D1B6803F0010303B9F5
:1008A00084E00B78012B06D1F44B1B6843F08003E6
:1008B000F24C236005E0F14B1B6823F08003EF4C02
:1008C00023604B78012B06D1EC4B1B6843F04003AF
:1008D000EA4C236005E0E94B1B6823F04003E74C3A
:1008E00023608B78012B06D1E44B1B6843F0200377
:1008F000E24C236005E0E14B1B6823F02003DF4C52
:100900002360CB78012B06D1DC4B1B6843F010032E
:10091000DA4C236005E0D94B1B6823F01003D74C59
:1009200023600B79012B06D1D44B1B6843F00803DD
:10093000D24C236005E0D14B1B6823F00803CF4C59
:1009400023604B79012B06D1CC4B1B6843F0040389
:10095000CA4C236005E0C94B1B6823F00403C74C55
:1009600023608B799B07CC7943EA04630C7A43EAD2
:1009700004434C7A43EA04534C89641E2343BF4C1E
:100980001C3423600120BD4B1B6823F00103BB4CCA
:100990002360820201E0531E9AB2002AFBDCB74BAF
:1009A0001B1D1B6803F0010303B1002010BD10B52F
:1009B0000021037801229A4091B2B14A126842F0B4
:1009C0000102AF4B1A60AE4A1C3212688A43AC4B2C
:1009D0001C331A608278CAB9A94A0C3212688A4359
:1009E000A74B0C331A60C288438942EA0343A44AE6
:1009F0004032047842F834308288038942EA034363
:100A00009F4A4032047802EBC40253608278012A84
:100A100019D19B4A0C3212680A43994B0C331A6065
:100A2000C288838842EA0343954A4032047842F8F8
:100A300034304289038942EA0343914A40320478C0
:100A400002EBC402536042783AB98D4A121D126813
:100A50008A438B4B1B1D1A6006E0894A121D1268DF
:100A60000A43874B1B1D1A60828932B9844A1432AB
:100A700012688A43824B14331A608289012A06D194
:100A80007F4A143212680A437D4B14331A60827B0A
:100A9000012A06D17A4A1C3212680A43784B1C3369
:100AA0001A60774A126822F00102754B1A6010BD75
:100AB0000021017041708170C170017141718171BB
:100AC000C1710321017202214172012141817047EC
:100AD00039B16A4A143212680243684B14331A60FF
:100AE00006E0664A143212688243644B14331A607B
:100AF000704710B501460020604A0832126802F0C3
:100B00008062B2F1806F00D114E05C4A0832126852
:100B100002F00062B2F1006F01D101200AE0574AF1
:100B20000832126802F08052B2F1805F01D10220D7
:100B300000E0042004287CD0514A803A02EB0012E5
:100B4000126802F001034E4A803A02EB0012136071
:100B50000A7ABAB90A88C2F30A020A600A885205F8
:100B60000A60474A803A02EB001213680C7A0A685E
:100B700022434C7A22431343414A803A02EB00124B
:100B8000136016E04A6822F060424A604A68D20068
:100B90004A603B4A803A02EB001213680C7A4A68BA
:100BA00022434C7A22431343354A803A02EB001227
:100BB00013608A7A02F00F028A72314A803A02EB9D
:100BC0000012526822F00F032D4A803A02EB001205
:100BD00053602B4A803A02EB001252688B7A1A4318
:100BE000274B803B03EB00135A608A7B13064A7B3A
:100BF00043EA02430A7B43EA0223CA7A1343204AA8
:100C0000803A02EB001293608A7C13064A7C43EA26
:100C100002430A7C43EA0222CB7B1343184A803A00
:100C200002EB0012D360164A803A02EB00121268FF
:100C300000E006E042F00103114A803A02EB0012A4
:100C4000136010BD0146002021B101291AD00229EC
:100C50003CD129E0094A0832126802F0010240EA58
:100C60008200064A0832126802F002021043034A68
:100C700008321268C2F38062104329E00064004029
:100C800000660040F74A126802F4807240EA92104F
:100C9000F44A126802F4007240EA1220F14A126823
:100CA000C2F3C062104313E0EE4A126802F48032CD
:100CB00040EA9230EB4A126802F4003240EA1240F5
:100CC000E84A1268C2F30072104301E0002000BF3E
:100CD00000BF20B1052804D0072806D103E0022078
:100CE00005E0002003E0012001E0002000BF00BF7C
:100CF000704720B1012809D0022815D10DE0D9494B
:100D0000096841F08001D74A11600EE0D5490968B1
:100D100041F40041D34A116007E0D249096841F427
:100D20000001D04A116000E000BF00BF704720B949
:100D30002021CC4A121D116003E02021C94A08324B
:100D4000116070470146002029B9C64A121D126879
:100D500002F0030008E0012905D1C24A08321268F6
:100D600002F0030000E00020704710B504460B4677
:100D7000BD4800EB0410006800F004001872187AF7
:100D800048B9B94800EB0410006840F2FF7101EA6D
:100D90005050186008E0B44800EB041000686FF091
:100DA000604101EAD0005860AF4800EB04100068D1
:100DB00000F002005872AC4800EB0410406800F0EC
:100DC0000F009872A84800EB04104068000AD8741D
:100DD000A54800EB04108068D872A34800EB04100B
:100DE0008068010A1973A04800EB04108068010CA8
:100DF00059739D4800EB04108068000E98739A4860
:100E000000EB0410C068D873974800EB0410C0686A
:100E1000010A1974944800EB0410C068010C59745D
:100E2000914800EB0410C068000E98742046FFF74C
:100E30007EFF10BD00208B490839096841F002018E
:100E4000884A083A116001201146096801F0020140
:100E500001B900207047002082490839096821F053
:100E60000201804A083A116000BF1146096801F08A
:100E7000020101B90120704701460020794A103271
:100E800012680A400AB1012000E00020704775494D
:100E9000103109688143734A10321160704702466D
:100EA000002002EA01030BB1012000E0002070479E
:100EB00070B504460025402C4FD00EDC072C2CD0FA
:100EC00006DC042C31D0052C19D0062C76D11DE07F
:100ED000082C32D0202C71D137E0B4F5806F54D07B
:100EE00006DCB4F5807F40D0B4F5007F66D144E0E5
:100EF000B4F5803F59D0B4F5003F5FD14DE059497A
:100F000008680121FFF7CBFF054659E055490868FD
:100F10008915FFF7C4FF054652E0524908684FF4AF
:100F20008031FFF7BCFF05464AE04E49091D0868BD
:100F30000821FFF7B4FF054642E04A49091D086849
:100F40001021FFF7ACFF05463AE046490831086832
:100F50000821FFF7A4FF054632E04249083108683E
:100F60001021FFF79CFF05462AE03E491031086832
:100F70000121FFF794FF054622E03A491031086845
:100F80000221FFF78CFF05461AE036491031086848
:100F90000421FFF784FF054612E03249091F086863
:100FA0001021FFF77CFF05460AE02E49091F08685B
:100FB0000821FFF774FF054602E0FFE7002500BFA8
:100FC00000BF284670BD40283ED00EDC072827D041
:100FD00006DC042829D0052819D006285ED11AE09D
:100FE000082827D0202859D129E0B0F5806F44D0B7
:100FF00006DCB0F5807F2CD0B0F5007F4ED135E017
:10100000B0F5803F40D0B0F5003F47D141E001212D
:10101000144A116043E04FF48071124A11603EE0BF
:101020004FF480310F4A116039E008210D4A121D3A
:10103000116034E010210B4A121D11602FE00821CD
:10104000084A083211602AE01021064A083211606D
:1010500025E004491031096821F00101014A1032EC
:1010600011601CE008640040B06500400D4909684B
:1010700021F002010B4A116011E00A49096821F0D0
:101080000401084A11600AE00821064A143A116076
:1010900005E01021034A143A116000E000BF00BFD0
:1010A0007047000018640040FD49096801F03801EC
:1010B000FB4A116011460968014311607047F84905
:1010C000096821F00801F64A1160114609680143D8
:1010D00011607047F249096821F01001F04A11606F
:1010E00011460968014311607047EE48EC494860B9
:1010F000ED4848607047EA48006940F08000E849E0
:10110000086170470420E649C96801F0010109B18E
:1011100001200EE0E249C96801F0040109B1022092
:1011200007E0DF49C96801F0100109B1032000E0C0
:101130000420704708B500200090FF20009002E0D6
:101140000098401E009000980028F9D108BD70B5A5
:1011500004460425FFF7D6FF054605E0FFF7EAFF42
:10116000FFF7D0FF0546641E012D01D1002CF5D1FB
:1011700004B90525284670BD70B50546042440F61F
:10118000FF70FFF7E4FF0446042C19D1C44800693E
:1011900040F00200C249086108464561006940F01C
:1011A0004000086140F6FF70FFF7D1FF0446012CB4
:1011B00006D0BB48006941F6FD710840B849086196
:1011C000204670BD10B5042440F6FF70FFF7BFFF46
:1011D0000446042C18D1B248006940F00400B0491C
:1011E00008610846006940F04000086140F6FF7061
:1011F000FFF7ADFF0446012C06D0A948006941F66F
:10120000FB710840A6490861204610BD10B50424B2
:1012100040F6FF70FFF79BFF0446042C3BD1A1482A
:101220009F498860A04888600846006940F0200017
:1012300008610846006940F04000086140F6FF7010
:10124000FFF785FF0446042C1CD19548006941F640
:10125000DF710840924908610846006940F01000BB
:101260000861A520914908800F20FFF770FF044610
:10127000012C10D08A48006941F6EF710840884976
:10128000086108E0012C06D08548006941F6EF713D
:10129000084083490861204610BD70B505460E46DA
:1012A00004240F20FFF753FF0446042C25D17C486B
:1012B000006940F001007A4908612E800F20FFF795
:1012C00046FF0446042C0FD1300C68800F20FFF736
:1012D0003EFF0446012C10D07148006941F6FE71B2
:1012E00008406F49086108E0012C06D06C4800698D
:1012F00041F6FE7108406A490861204670BD70B52C
:1013000005460E4604240F20FFF721FF0446042C57
:1013100013D16348006940F00100614908612E80E3
:101320000F20FFF714FF0446012C06D05C4800692B
:1013300041F6FE7108405A490861204670BD70B5FB
:1013400005460E4604240F20FFF701FF0446042C37
:1013500017D154485249886053488860084600694C
:1013600040F0100008612E800F20FFF7F0FE0446C9
:10137000012C06D04A48006941F6EF7108404849FF
:101380000861204670BD2DE9F04704464FF6FF7610
:101390003746B046B1460425E443E6B2C4F3072716
:1013A000C4F307484FEA14690F20FFF7D0FE054643
:1013B000042D40D13B483A4988603B488860084644
:1013C000006940F010000861FF2E06D03748083051
:1013D00006800F20FFF7BBFE0546042D08D1FF2F26
:1013E00006D032480A3007800F20FFF7B0FE0546CE
:1013F000042D0AD1B8F1FF0F07D02C480C30A0F80B
:1014000000800F20FFF7A3FE0546042D0AD1B9F195
:10141000FF0F07D025480E30A0F800900F20FFF7EF
:1014200096FE0546012D06D01D48006941F6EF7174
:1014300008401B4908612846BDE8F08770B505469D
:10144000042440F6FF70FFF782FE0446042C4AD1C4
:10145000144813498860144888600846006940F0C1
:10146000200008610846006940F04000086140F62D
:10147000FF70FFF76CFE0446042C2BD1084800696E
:1014800041F6DF710840064908610846006940F0EE
:101490001000086165B10020044908800BE00000DD
:1014A0000020024023016745AB89EFCD00F8FF1F04
:1014B000A5204549088040F6FF70FFF748FE044626
:1014C000012C10D04148006941F6EF7108403F49B6
:1014D000086108E0012C06D03C48006941F6DF7144
:1014E00008403A490861204670BD2DE9F0410746A1
:1014F0000D461646042436483449886035488860CD
:101500000F20FFF724FE0446042C1AD12F4800694F
:1015100040F010002D49086147EA0500304340F0D3
:10152000F8002949891C08800F20FFF710FE0446A7
:10153000012C06D02548006941F6EF710840234987
:1015400008612046BDE8F0812048C06980087047E6
:101550001E48006A704700201C49C96901F0020159
:1015600009B1012000E000207047002017490968F8
:1015700001F0200109B1012000E00020704729B1ED
:10158000124A12690243114B1A6104E00F4A1269B0
:1015900082430E4B1A61704701460020012908D191
:1015A0000A4AD26902F001020AB1012008E00020D3
:1015B00006E0064AD2680A400AB1012000E0002095
:1015C00070470249C860704700F8FF1F00200240C2
:1015D00023016745AB89EFCD10B50446C549601AB4
:1015E0008C422FD009DCC448204480B1B0F5806F14
:1015F00016D0B0F5006F4AD11BE0B0F5806F2AD04D
:10160000B0F5006F30D0B0F5406F40D135E001212A
:10161000042000F0EDFC0021042000F0E9FC37E09C
:101620000121082000F0E4FC0021082000F0E0FC8B
:101630002EE00121102000F0DBFC0021102000F042
:10164000D7FC25E00121202000F0D2FC0021202041
:1016500000F0CEFC1CE00121402000F0C9FC00217C
:10166000402000F0C5FC13E00121802000F0C0FC08
:101670000021802000F0BCFC0AE00121080200F0FB
:10168000B7FC00214FF4807000F0B2FC00E000BF16
:1016900000BF10BD10B50121084600F0A9FC0021D3
:1016A000012000F0A5FC10BD2DE9F0410246002507
:1016B0000026002000230024002791F803C00CF02E
:1016C0000F0591F803C00CF0100CBCF1000F03D013
:1016D00091F802C04CEA050591F800C0BCF1000F7A
:1016E00030D0146800202AE04FF0010C0CFA00F30F
:1016F000B1F800C00CEA03069E421FD183004FF0F0
:101700000F0C0CFA03F7BC4305FA03FC4CEA040483
:1017100091F803C0BCF1280F05D14FF0010C0CFA71
:1017200000FCC2F814C091F803C0BCF1480F05D109
:101730004FF0010C0CFA00FCC2F810C0401C082845
:10174000D2D31460B1F800C0BCF1FF0F34DD54688F
:1017500000202EE000F1080C4FF0010808FA0CF30D
:10176000B1F800C00CEA03069E4221D183004FF07D
:101770000F0C0CFA03F7BC4305FA03FC4CEA040413
:1017800091F803C0BCF1280F05D100F1080C08FA4C
:101790000CF8C2F8148091F803C0BCF1480F07D1CF
:1017A00000F1080C4FF0010808FA0CF8C2F810809C
:1017B000401C0828CED35460BDE8F0814FF6FF717D
:1017C0000180022181700421C1707047024600200F
:1017D00093680B400BB1012000E0002070470146E8
:1017E000886880B2704702460020D3680B400BB176
:1017F000012000E0002070470146C86880B27047B1
:1018000001617047416170470AB1016100E04161C7
:101810007047C16070474FF480320A438261816132
:10182000826182698269704702460020334B1868E2
:101830004FF68073184040EA021008432F4B18609F
:1018400070472F49C8617047F0B50A46002300244D
:1018500000210025294E7168C0F3034583B200F4CE
:101860004016B6F5401F08D121F07061234E76680E
:1018700026F07066214F7E6012E000F48016B6F507
:10188000801F06D1032606FA05F4A14341F07061DA
:1018900006E0460D360103FA06F6B14341F07061E9
:1018A00022B1460D360103FA06F63143134E71603C
:1018B000F0BD30B500228B071C0F0F2303FA04F292
:1018C0000E4B08338C1053F8243093430B4C0834E0
:1018D0008D1044F8253023468C1053F824308C07A3
:1018E000240F00FA04F42343044C08348D1044F808
:1018F000253030BD0014014000F8FEBF000001405B
:10190000000020420020411EED4A11600A09EC4906
:101910008039C1F88420411E4FF0E022C2F88012C5
:101920000A09E8490A6000BF04E00022E64941F8DC
:101930002020401C0F28F8D3704700204FF0206172
:10194000E24A11600021121D1160E149121D11606F
:101950000021121D1160121D116000BF05E0002260
:10196000DA49143141F82020401C0328F7D3002124
:10197000D64A20321160491E121D1160121D1160DD
:10198000121D11607047D2490143D04A08321160DC
:101990007047F0B500210022002300250F24C678EF
:1019A000002E35D0C94E0836366806F4E066C6F516
:1019B000E066310AC1F10405CC40467806FA05F12B
:1019C00086782640314309010678B607F60EB14005
:1019D000BD4E0778BF1056F827200678B607F70ED9
:1019E000FF2606FA07F39A4319400A43B64E0778D2
:1019F000BF1046F82720067806F01F070126BE40D4
:101A000007787F11BF0007F1E027C7F800610BE0FE
:101A1000067806F01F070126BE40A94F90F800C0C7
:101A20004FEA6C1C47F82C60F0BD0021017041703A
:101A30008170C170704710B502F0A1FD10BD10B5E6
:101A400002F09BFD10BD10B502F09EFD10BD10B55B
:101A500002F09CFD10BD10B50446200102F09BFD74
:101A600010BD10B502F09AFD10BD98480068C0F393
:101A70000930704710B501460020002201F01F0414
:101A8000012303FA04F28E4B80334C1153F82430B7
:101A90001340934201D1012000E0002010BD8D4988
:101AA0000860704700F01F0201219140854A121F13
:101AB000431142F82310704784480068C0F30900BE
:101AC000704710B501460020002201F01F040123D9
:101AD00003FA04F27B4B7C334C1153F8243013404F
:101AE000934201D1012000E0002010BD7748001F83
:101AF00000687047784A0A400243744B1B1D1A6005
:101B000070477348001D714908310860704770487C
:101B1000401C6E4908310860704739B16B4A0C327D
:101B200012680243694B0C331A6006E0674A0C32B4
:101B300012688243654B0C331A60704710B500225F
:101B400000F01F04012303FA04F239B15F4B203384
:101B50001B6813435D4C2034236006E05B4B20334D
:101B60001B689343594C2034236010BDF0B50346E5
:101B70000C4615460020FF2200260021534F08374F
:101B80003F6807F4E067C7F5E067390AC1F1040070
:101B9000CA4004FA00F105EA02073943090103F0DB
:101BA000C0008009C3F30122D700B9404FEAC20C3C
:101BB000FF2707FA0CF6454F143757F82070B74344
:101BC000DFF808C10CF1140C4CF82070674657F888
:101BD00020700F434CF82070F0BD10B50246002075
:101BE00000230021910A01F00F01012404FA01F100
:101BF000364C2034246804EA01038B4201D10120D1
:101C000000E0002010BD002100F01F012F4A1268E3
:101C100001238B401A432D4B1A60704710B50021E9
:101C200000F01F01294A12684B1E01249C402243E8
:101C3000264B1A6010BD10B502460020002300217B
:101C4000C2F38331012404FA01F1204C20342468CA
:101C500004EA01038B4201D1012000E0002010BD05
:101C600030B50146002000220023C1F38142C1F3B8
:101C700001531AB9154C2834206811E0012A0CD1FF
:101C8000124C24342468DD0024FA05F0022B02D023
:101C900000F00F0004E0C0B202E00C4C2C342068CD
:101CA00030BD014600200022C1F380521AB9074B13
:101CB0003033186802E0054B343318687047000071
:101CC00080E100E084E200E000E400E004ED00E0F8
:101CD0000000FA0500EF00E080FFFF1FE048006809
:101CE00040F00100DE49086008464068DD490840D0
:101CF000DB49486008460068DB490840D84908606D
:101D00000846006820F4802008600846406820F4F7
:101D1000FE004860002088607047D149096821F4BE
:101D20008031CF4A11601146096821F48021116089
:101D3000B0F5803F03D0B0F5802F0ED106E0C84942
:101D4000096841F48031C64A116007E0C449096856
:101D500041F4A021C24A116000E000BF00BF7047FB
:101D600010B501460022002300204A11012A02D1A9
:101D7000BB4C236806E0022A02D1B94C236A01E079
:101D8000B74C636A01F01F02012494401C400CB15F
:101D9000012000E0002010BD10B5002400BF31205C
:101DA000FFF7DEFFB1490870B1480068401CB04938
:101DB0000860AE48007828B90846006840F2FF1174
:101DC0008842ECD13120FFF7CBFF08B1012400E0BD
:101DD0000024204610BD01460020A14A106820F0D2
:101DE000F80040EAC10010607047A24908607047DF
:101DF000024600209A4B586820F47C1042EA010306
:101E00001843974B586070479A49086670470146D7
:101E10000020934A506820F0030008435060704748
:101E20008F48406800F00C007047014600208C4A43
:101E3000506820F0F00008435060704701460020D1
:101E4000874A506820F4E0600843506070470146BC
:101E50000020834A506820F4605040EAC10050607E
:101E6000704729B17E4A527A02437D4B5A7204E090
:101E70007B4A527A82437A4B5A7270477D49D831F5
:101E80000860704701460020754A506820F44040C1
:101E90000843506070470021714A20321170704A27
:101EA00082F82010012802D004280AD104E0012180
:101EB0006B4A2032117005E00521694A2032117009
:101EC00000E000BF00BF70476B490860704764497D
:101ED000096A0143624A11627047674944390860E0
:101EE000704730B500210022002400235C4D6D684E
:101EF00005F00C0121B1042905D0082923D105E002
:101F00005E4D056022E05D4D05601FE0544D6D683B
:101F100005F47012022505EB9242514D6D6805F4EF
:101F200080341CB9564D554305600BE04C4D6D682F
:101F300005F400351DB1524D5543056002E04F4D8B
:101F40005543056002E04D4D056000BF00BF444DA4
:101F50006D6805F0F00109094A4D6B5C0568DD40CC
:101F600045603F4D6D6805F4E061090A454D6B5CC5
:101F70004568DD4085603A4D6D6805F46051C90AD9
:101F8000404D6B5C4568DD40C560354D6D6805F4BE
:101F90004041890B3C4D6B5CC568B5FBF3F50561B1
:101FA00030BD29B12E4A526902432D4B5A6104E0DB
:101FB0002B4A526982432A4B5A61704729B1284AF9
:101FC00092690243264B9A6104E0254A9269824352
:101FD000234B9A61704729B1214AD2690243204BB1
:101FE000DA6104E01E4AD26982431D4BDA61704710
:101FF00029B11B4AD2680243194BDA6004E0184A3F
:10200000D2688243164BDA60704729B1144A1269CC
:102010000243134B1A6104E0114A12698243104BC8
:102020001A61704714494039086070471149C86403
:1020300070470B49C87170470948406A40F080708A
:1020400007494862704701460020054A92680A40E5
:102050000AB1012000E000207047014988727047F2
:10206000001002400000FFF8FFFFF6FE0000002015
:1020700004000020000042428004424200127A0024
:1020800000093D008E5400089E54000810B5044617
:10209000F849601A8C4245D00CDCB4F1804F1DD059
:1020A000F548204418B3B0F5806F29D0B0F5006F23
:1020B00054D12EE0B0F5806F3DD0B0F58E3F03D007
:1020C000B0F5923F4AD13FE00121C802FFF790FFEF
:1020D00000214FF40060FFF78BFF40E0012108462C
:1020E000FFF793FF00210120FFF78FFF37E0012169
:1020F0000220FFF78AFF00210220FFF786FF2EE073
:1021000001210420FFF781FF00210420FFF77DFF5C
:1021100025E001210820FFF778FF00210820FFF7C4
:1021200074FF1CE001211020FFF76FFF0021102039
:10213000FFF76BFF13E001212020FFF766FF00216E
:102140002020FFF762FF0AE001214803FFF750FF5C
:1021500000214FF40050FFF74BFF00E000BF00BF2D
:1021600010BD028802F08F020280CA884B881A4391
:1021700003881A4302808A8882850A8802850122A0
:102180008282BE4A904202D0BD4A904202D10A7A6F
:10219000A0F85020704770B5002400220023058C61
:1021A0004FF6FE7635400584028C8388048B4FF60B
:1021B0008F752C400D882C43751E2A400D892A43AB
:1021C0004D882A43CD888586AC4DA84202D0AC4DBF
:1021D000A84213D14FF6F7752A404D892A434FF68E
:1021E000FB752A408D882A4347F6FF652B4047F64A
:1021F000FF552B408D892B43CD892B43838004834E
:10220000028470BD70B5002400220023058C4FF6B7
:10221000EF7635400584028C8388048B48F6FF7581
:102220002C400D884FF6FF7606EA05252C434FF625
:10223000DF752A400D8906EA05152A434D8806EA0E
:1022400005152A43CD8805878C4DA84202D08C4DB8
:10225000A8421DD14FF67F752A404D894FF6FF7673
:1022600006EA05152A434FF6BF752A408D8806EA0F
:1022700005152A4347F6FF352B4047F2FF752B40E3
:102280008D8906EA85052B43CD8906EA85052B4312
:1022900083800483028470BD70B500240022002373
:1022A000058C4FF6FF6635400584028C8388848B4D
:1022B0004FF68F752C400D882C434FF6FF552A4062
:1022C0000D894FF6FF7606EA05252A434D8806EA72
:1022D00005252A43CD888587684DA84202D0684DE0
:1022E000A8421DD14FF2FF752A404D894FF6FF7667
:1022F00006EA05252A434FF6FF352A408D8806EA6F
:1023000005252A4346F6FF752B4045F6FF752B4001
:102310008D8906EA05152B43CD8906EA05152B4361
:1023200083808483028470BD70B500240022002362
:10233000058C4EF6FF7635400584028C8388848BAD
:1023400048F6FF752C400D884FF6FF7606EA052506
:102350002C434DF6FF752A400D8906EA05352A43C0
:102360004D8806EA05352A43CD88A0F84050434DF4
:10237000A84202D0424DA84207D1C3F30D038D8974
:102380004FF6FF7606EA85152B438380848302840B
:1023900070BD828B4FF2FF331A408283828B4FF6DF
:1023A000FF7303EA01231A4382837047F0B50C469A
:1023B0001546002100220026078C4EF6FF7C07EA16
:1023C0000C070784818B028C4FF6FF7707EA0436EF
:1023D00040F6FF4739404FF6FF7707EA05274FF6EB
:1023E000FF7C0CEA033C47EA0C0739434DF6FF77C4
:1023F0003A4046F480573A4381830284F0BD828B91
:102400004FF6F3731A408283828B0A4382837047AC
:10241000F0B50C461546002100220026078C4FF629
:10242000FF6C07EA0C070784818B028C4FF6FF775D
:1024300007EA04264FF60C7739404FF6FF7707EA94
:1024400003172F4339434FF6FF573A4046F480773E
:102450003A4381830284F0BD028B4FF2FF331A406E
:102460000283028B4FF6FF7303EA01231A430283B0
:10247000704700000010004000FCFFBF002C01402E
:1024800000340140F0B50C4615460021002200261C
:10249000078C4FF6EF7C07EA0C070784018B028C50
:1024A0004FF6FF7707EA041640F6FF4739404FF62C
:1024B000FF7707EA033739434FF6FF7707EA052727
:1024C00039434FF6DF773A4046F010073A4301832D
:1024D0000284F0BD028B4FF6F3731A400283028B25
:1024E0000A4302837047F0B50C46154600210022CE
:1024F000068C4FF6FE773E400684018B028C4FF629
:102500000C7631407E1C06EA03162E4331437E1EB4
:10251000324044F00106324301830284F0BD70B5BD
:1025200005460C46208850B92389A2886188284630
:10253000FFF7D9FFE1882846FFF7CCFF25E0208888
:1025400004280AD12389A28861882846FFF79AFFC8
:10255000E1882846FFF780FF17E0208808280AD185
:102560002389A28861882846FFF752FFE188284620
:10257000FFF745FF09E02389A28861882846FFF715
:1025800015FFE1882846FFF704FF70BD2DE9F041F3
:1025900005460C4600260127608808B9022600E09F
:1025A0000026A088012801D1022700E00127208809
:1025B000A0B92389A28861882846FFF794FFE188A3
:1025C0002846FFF787FF23893A4631462846FFF71A
:1025D00059FFE1882846FFF73FFF13E02389A288CF
:1025E00061882846FFF74EFFE1882846FFF734FF51
:1025F00023893A4631462846FFF775FFE188284689
:10260000FFF768FFBDE8F0810A884B881A438B8882
:102610001A43CB881A430B891A434B891A438B8977
:102620001A43A0F8522070474FF6FF7181800021B5
:102630000180C1804180017270470021018041808A
:102640008180C180018141818181C18170470021E8
:1026500001804180012181800021C180018170477A
:102660000021018041808180C1800181418181817F
:10267000704721B1028842F00102028004E0028822
:1026800040F2FE331A400280704731B1B0F8522058
:1026900042F40042A0F8522005E0B0F85220C2F304
:1026A0000E02A0F8522070471AB183890B43838130
:1026B00002E083898B43838170478182704741EABE
:1026C0000203A0F8483070471AB183890B43838115
:1026D00002E083898B438381704701894FF6F8724A
:1026E0001140018170470A46002101894FF68F731E
:1026F000194011430181704730B504460D46294603
:102700002046FFF7F0FF208940F00700208130BD10
:102710002DE9F04104460D4616461F46602D06D1B0
:102720003B46012231462046FFF7ACFE05E03B4622
:10273000012231462046FFF7D6FE29462046FFF704
:10274000D2FF208940F007002081BDE8F08170B5FC
:102750000C4600210189C9B244EA02054FF6FF7612
:1027600006EA032635432943018170BD2DE9F04176
:1027700005460E4617469846002443463A463146DB
:102780002846FFF7E4FF2C894FF6F870044044F028
:1027900007044FF68F70044044F070042C81BDE8AC
:1027A000F081F0B504460D4616461F463B463246BC
:1027B00029462046FFF7CBFF208940F48040208146
:1027C000F0BD0185828270470A460021018840F2EF
:1027D0008F331940114301807047F0B50C46154600
:1027E0001E460021002200230189028B038C4FF634
:1027F000F877394021434FF6FC473A4040F2011741
:102800003A434FF6DD773B404FF6FF7707EA06176E
:102810002F433B43018102830384F0BD0A4600211C
:10282000018B4FF68F7319401143018370470A469D
:102830000021018B48F6FF7319404FF6FF7303EA3E
:1028400002231943018370470A460021818B4FF60A
:102850008F7319401143818370470A460021818B91
:1028600048F6FF7319404FF6FF7303EA022319433A
:102870008183704721B1028842F08002028004E027
:10288000028840F27F331A400280704721B182886B
:1028900042F00402828004E082884FF6FB731A4003
:1028A0008280704721B1828842F00802828004E071
:1028B00082884FF6F7731A408280704721B1828870
:1028C00042F00102828004E082884FF6FE731A40D3
:1028D000828070470A460021018B4FF6F77319403A
:1028E0001143018370470A460021018B4FF2FF73A9
:1028F00019404FF6FF7303EA02231943018370471F
:102900000A460021818B4FF6F773194011438183EA
:1029100070470A460021818B4FF2FF7319404FF632
:10292000FF7303EA02231943818370470A4600219B
:10293000018B4FF6FB7319401143018370470A4620
:102940000021018B4FF6FF3319404FF6FF7303EA66
:1029500002231943018370470A460021818B4FF6F9
:10296000FB7319401143818370470A460021818B14
:102970004FF6FF3319404FF6FF7303EA0223194362
:10298000818370470A460021018B4FF67F731940FF
:102990001143018370470A460021018BC1F30E01E8
:1029A0004FF6FF7303EA02231943018370470A4677
:1029B0000021818B4FF67F7319401143818370474B
:1029C0000A460021818BC1F30E014FF6FF7303EA23
:1029D00002231943818370470A460021018C4FF678
:1029E000FD7319401143018470470A460021018C90
:1029F0004FF6F77319401143018470470A460021CE
:102A0000018C4FF6DF7319404FF6FF7303EA021390
:102A10001943018470470A460021018C4FF67F73E9
:102A200019404FF6FF7303EA0213194301847047FC
:102A30000A460021018C4FF6FF5319404FF6FF73F1
:102A400003EA02231943018470470A460021018CDE
:102A50004FF2FF7319404FF6FF7303EA0223194345
:102A6000018470470A460021018C4DF6FF7319401E
:102A70004FF6FF7303EA023319430184704710B520
:102A8000038C01248C40A3430384038C02FA01F4D9
:102A9000A4B22343038410BD10B5038C04248C40DE
:102AA000A3430384038C02FA01F4A4B223430384F6
:102AB00010BD30B5038C01248C40A343038409B1BD
:102AC000082912D100F1180303EB61031B684FF6CC
:102AD0008F74234000F1180404EB6104236000F1BB
:102AE000180303EB61031A6018E00B1FC3F34E04D5
:102AF00000F118031B5948F6FF7423400C1FC4F360
:102B00004E0500F1180463514FF6FF7303EA0224E7
:102B10000B1FC3F34E0500F118035C5130BD21B10A
:102B2000028842F00202028004E0028840F2FD3393
:102B30001A400280704721B1028842F004020280EC
:102B400004E0028840F2FB331A400280704721B152
:102B5000828842F08002828004E082884FF67F7390
:102B60001A4082807047028840F2F7331A40028090
:102B700002880A430280704782884FF68F731A409A
:102B8000828082880A438280704702894FF6F873F8
:102B90001A40028102890A430281704702894FF676
:102BA0007F731A40028102890A430281704781843F
:102BB000704781857047818670470187704781879C
:102BC0007047A0F8401070470288D2B20280028895
:102BD0000A43028070470146888E70470146088F7D
:102BE00070470146888F70470146B1F84000704732
:102BF0000146888C70470146088D704702460020C8
:102C0000138A0B400BB1012000E000207047CA433B
:102C10000282704730B50246002000230024158A46
:102C200005EA0103958905EA010413B10CB10120FD
:102C300000E0002030BDCA430282704710B5012178
:102C4000C802FFF7D5F900214FF40060FFF7D0F973
:102C500010BD8188F84A11800188121F1180F64941
:102C60002C39098801F09F01F34A2C3A1180C18860
:102C700042881143F04A2C3A12881143EE4A2C3A0A
:102C80001180017AEC4A121D118070470021EA4A36
:102C9000143A11880022E94B1A6001F47F4102883E
:102CA0001143E54A143A118042881A608288E34B46
:102CB00008331A6002891B1F1A604289DF4B0C33EC
:102CC0001A608289DE4B1A60C2891B1D1A60C28895
:102CD000D94B08331A8070470021D74A143A11881B
:102CE0000022D64B10331A60C9B2028841EA022191
:102CF000D14B143B19804288D04B10331A60828824
:102D0000CE4B18331A6002891B1F1A604289CB4BC5
:102D10001C331A608289CA4B08331A60C2891B1D92
:102D20001A60C288C44B0C331A8070470021C24A13
:102D3000103A11880022C14B20331A6001F47F4100
:102D400002881143BC4A103A118042881A60828876
:102D5000BA4B28331A6002891B1F1A604289B74B8D
:102D60002C331A608289B64B10331A60C2891B1D3E
:102D70001A60C288B04B10331A8070470021AE4AE7
:102D8000103A11880022AD4B30331A60C9B2028864
:102D900041EA0221A84B103B19804288A74B3033EF
:102DA0001A6002891B1D1A608289A54B18331A60AC
:102DB000C288A14B14331A80704700219E4A1832F2
:102DC0001188028843881A4383881A43C3881A43A8
:102DD00003891A4343891A43838942EA0301964AC5
:102DE00018321180704701460020934A103A10882B
:102DF0004FF2FF3210404FF6FF7202EA01221043F9
:102E00008D4A103A1080704730B5034600208A4C36
:102E1000103C20880024894D30352C6040F6FF445A
:102E200020404FF6FF7404EA01244FF6FF7505EACF
:102E300002352C432043804C103C20807F4C34349E
:102E4000236001247D4D30352C6030BD01460020CB
:102E5000794A103A10884FF6F37210400843764BC7
:102E6000103B1880704730B503460020724C103C70
:102E700020880024714D20352C604FF60C742040C2
:102E800041EA021420436C4D103D28806B4C2434E1
:102E900023600124694D20352C6030BD014600209F
:102EA000654A143A10884FF2FF3210404FF6FF7215
:102EB00002EA01221043604A143A1080704730B58C
:102EC000034600205C4C143C208800245B4D1035E8
:102ED0002C6040F6FF4420404FF6FF7404EA0124C2
:102EE0004FF6FF7505EA02352C432043524C143C43
:102EF0002080524C143423600124504D10352C6036
:102F000030BD014600204C4A143A10884FF6F37247
:102F100010400843484B143B1880704730B50346B7
:102F20000020454C143C20880024444D2C604FF672
:102F30000C74204041EA021420433F4D143D288088
:102F40003E4C241D236001243C4D2C6030BD10B547
:102F50000446208840B9227AA1886088FFF7DEFF06
:102F6000E088FFF7CEFF1FE02088012808D1227AF1
:102F7000A1886088FFF7A3FFE088FFF78FFF13E0C9
:102F80002088022808D1227AA1886088FFF76BFF89
:102F9000E088FFF75BFF07E0227AA1886088FFF7EF
:102FA00033FFE088FFF71FFF10BD70B50446002512
:102FB0000126608808B9012500E00025A0880128C5
:102FC00001D1022600E00126208880B9227AA1885A
:102FD0006088FFF7A3FFE088FFF793FF227A31466E
:102FE0002846FFF76CFFE088FFF758FF0FE0227AD2
:102FF000A1886088FFF763FFE088FFF74FFF227A20
:1030000031462846FFF78AFFE088FFF77AFF70BD58
:103010000021018041808180C180018141818181C5
:10302000C181704700210180012181800021418000
:10303000C1800172704700002C2C014000842542A1
:10304000A08025424FF6FF71818000210180C18060
:103050004180017270470021018041808180C180E0
:103060000181418181817047FE4908607047FE49B6
:1030700008607047012905D1FC4A12880243FB4BC6
:103080001A8004E0F94A12888243F84B1A8070478C
:1030900010B50022F54B3C331A88002240EA0103A8
:1030A0001A43F24C3C34228010BD10B50A46002170
:1030B000EE4B1988012A01D1014302E0C3439BB2C0
:1030C0001940EA4C218010BDE848001F00884FF6E7
:1030D000F0710840E549091F0880704730B5034684
:1030E0000020E24C241F208844F2F704204043EAE9
:1030F00001044FF6FF7505EA02252C432043DB4D02
:103100002D1F288030BD70B504460D461646324648
:1031100029462046FFF7E2FFD448001F00884FF6FB
:10312000F0710840D149091F08800846008840F026
:1031300007000880084600884FF687710840CB4991
:10314000091F08800846008840F07000088070BDA4
:1031500070B504460D461646324629462046FFF70E
:10316000BDFF0120C249086070BD01460020BF4A72
:10317000121F10884FF6877210400843BB4B1B1F6D
:103180001880704710B504462046FFF7EEFFB74899
:10319000001F008840F00700B449091F088010BDD7
:1031A00070B504460D461646602C05D13246012105
:1031B0002846FFF784FE04E0324601212846FFF747
:1031C000ADFE2046FFF7D1FFA848001F008840F061
:1031D0000700A649091F088070BDA24948607047D2
:1031E000A049886070479F499C31086070479D499D
:1031F000C8607047014600209C4A083A108800F0D9
:103200008000084313461880704701460020974A03
:10321000121F10884FF6F07210400843934B1B1F8B
:103220001880704792491C390860704770B5034692
:103230000C46002100208D4D2D1F29888B4D0C350B
:1032400028884FF6F075294019434FF6FC45284071
:1032500040F201152843874D2C60864D10352A60B9
:10326000824E361F3180814D0C35288070BD7F4ADB
:103270001C321080804A11607047014600207B4A52
:103280000C3A108840F29F3210400843774B0C3BB9
:103290001880704701460020744A0C32108847F6A7
:1032A0000F7210400843714B0C3318807047014671
:1032B00000206E4A0C32108840F67F72104040EABF
:1032C00001206A4B0C331880704701460020674A82
:1032D0001032108847F60F7210400843634B1033CA
:1032E0001880704701460020604A0C32108840F672
:1032F0007F7210404FF6FF7202EA012210435B4AD0
:103300001032108070475749C8617047554988315D
:103310000860704753498C310860704751498031CB
:103320000860704754498C31086070475249AC318D
:10333000086070474F497839086070474D495839DF
:10334000086070474C498831086070474A49A83185
:103350000860704747497C390860704745495C39C7
:103360000860704744499C31086070474249BC314D
:10337000086070473F496839086070473D494839DF
:10338000086070473949083109880143374A0832D3
:103390001180704737490860704736490831086026
:1033A000704734491031086070473249183108605D
:1033B000704730492031086070472E492831086035
:1033C00070472C4930310860704718B9294A121FDC
:1033D00011600EE0012803D1264A0C32116008E08A
:1033E000022803D1234A1C32116002E0214A2C3208
:1033F0001160704718B91F4A121D116008E00128BA
:1034000003D11C4A1432116002E01A4A24321160BE
:10341000704780B90022174B1B1F1A60134A0C32E9
:10342000128802F47F42114B0C331A801A4612881C
:103430000A431A8046E0012822D100220D4B0C33AA
:103440001A600A4A0C321288D2B2084B0C331A8026
:103450001A4612884FF6FF7303EA01231A43034BFF
:103460000C330BE000802542BC8825420C2C014027
:103470003881254204842542808225421A8021E039
:1034800002280DD10022454B1A60454A128802F4E9
:103490007F42434B1A801A4612880A431A8011E071
:1034A00000223E4B10331A603D4A1288D2B23C4B88
:1034B0001A801A4612884FF6FF7303EA01231A4353
:1034C000374B1A80704736490831088070473449B5
:1034D00010310880704732491831088070473049F0
:1034E0001C31088070472E492031088070472C49D4
:1034F00024310880704701460020294A1C3A108870
:10350000C0B2084313461880704725481830008819
:10351000704723481C3000887047214820300088BD
:1035200070471F482430008870471D4808300088C5
:1035300070471B480C300088704701460020184A2D
:103540000C3A12880A400AB1012000E000207047BE
:1035500013490C3909888143114A0C3A118070478C
:1035600010B501460020002200230D4C0C3C24889D
:1035700004EA01020A4C103C248804EA010312B157
:103580000BB1012000E0002010BD05490C3909886D
:103590008143034A0C3A1180704700002084254281
:1035A0001C2C014010B50446D749601A8C422BD020
:1035B00006DCD648204498B1B0F5806F38D119E0C8
:1035C000B0F5806F2AD0B0F56C4F31D1012188035E
:1035D000FEF70EFD00214FF48040FEF709FD28E0C4
:1035E00001214804FEF711FD00214FF40030FEF7E1
:1035F0000CFD1EE001218804FEF707FD00214FF4B9
:103600008020FEF702FD14E00121C804FEF7FDFC56
:1036100000214FF40020FEF7F8FC0AE00121080524
:10362000FEF7F3FC00214FF48010FEF7EEFC00E003
:1036300000BF00BF10BD2DE9F04786B005460E461D
:103640000024A24600BF00BF00272F462C8A4CF65C
:10365000FF700440F08804432C82AC894EF6F310CE
:103660000440B08831890843718908430443AC8120
:10367000AC8A4FF6FF400440B0890443AC8201A8F5
:10368000FEF72FFCA248874202D1DDF810A001E02E
:10369000DDF80CA00AEBCA0000EB0A1031688900C3
:1036A000B0FBF1F86420B8FBF0F0040120096421BC
:1036B00001FB1089322000EB0910B0FBF1F000F0A3
:1036C0000F0004432C8106B0BDE8F0874FF416517B
:1036D000016000218180C18001810C214181002194
:1036E0008181704710B502460020108A4FF2FF0317
:1036F00018400B884C8823438C882343CC88234371
:103700001843108210BD0021018041808180C1805A
:10371000704721B1828942F40052828104E082899B
:103720004DF6FF731A4082817047F0B503460024BE
:103730000026002500201846C1F3421401F01F06A0
:10374000012707FA06F5012C01D10C3004E0022C08
:1037500001D1103000E014301AB107682F43076020
:1037600002E00768AF430760F0BD1AB1838A0B43DC
:10377000838202E0838A8B4383827047028A4FF6FA
:10378000F0731A400282028A0A43028270478289D9
:103790004FF2FF731A40828182890A438281704707
:1037A00021B1828942F00202828104E082894FF6CF
:1037B000FD731A4082817047028A4FF6DF731A4008
:1037C0000282028A0A430282704721B1028A42F4CD
:1037D0008042028204E0028A4BF6FF731A400282A2
:1037E0007047C1F308028280704701468888C0F3A1
:1037F00008007047818941F0010181817047028B87
:10380000D2B20283028B42EA012202837047028B0A
:1038100002F47F420283028B0A430283704721B184
:10382000828A42F02002828204E0828A4FF6DF73AD
:103830001A408282704721B1828A42F0100282824D
:1038400004E0828A4FF6EF731A408282704721B1FA
:10385000828A42F00802828204E0828A4FF6F7737D
:103860001A4082827047828A4FF6FB731A40828226
:10387000828A0A438282704721B1828A42F0020220
:10388000828204E0828A4FF6FD731A40828270477A
:103890000246002013880B400BB1012000E00020FD
:1038A0007047CA430280704770B502460B46002439
:1038B000002100250020C3F3421503F01F0101265B
:1038C00006FA01F1012D02D19689314006E0022D60
:1038D00002D1168A314001E0968A31401C1201263D
:1038E00006FA04F41688344011B10CB1012000E04E
:1038F000002070BD10B5002200230A12012494405C
:10390000A3B2DC43048010BD004C004000BCFFBFEC
:10391000003801404FF0E021096921F004014FF027
:10392000E0221161C21700EB5272C2F3C702234BAF
:103930001A701946097801EB4102C2EBC1114FF62A
:10394000FF7202EAC1011E4A1180704701461C4AFB
:1039500012884A434FF0E0235A6100229A61012203
:103960001A6100BF4FF0E022106900F001021AB1A5
:1039700000F48032002AF5D000224FF0E0231A61D3
:103980009A61704701460D4A12784A434FF0E0238E
:103990005A6100229A6101221A6100BF4FF0E022B1
:1039A000106900F001021AB100F48032002AF5D04B
:1039B00000224FF0E0231A619A617047080000204E
:1039C0000A000020014600BF7047C2B2A54B1A8012
:1039D00000BFA44A121F128802F04002002AF8D049
:1039E000704770B585B002460020002300BF0CE090
:1039F0000A24B2FBF4F504FB152430340DF8004022
:103A0000441CE0B20A24B2FBF4F2002AF0D10346CF
:103A1000002006E01C1A641E1DF804400C54441CCF
:103A2000E0B29842F6DB20B930260446451CE8B2E5
:103A30000E5500240C5405B070BD2DE9F04105462B
:103A400000260127284600F031FE00F0FF0844461A
:103A500009E0601E285C303800FB076607EB870032
:103A60004700601EC4B2002CF3DC3046BDE8F08194
:103A700000B587B0012144F20500FEF79FFA4FF42C
:103A80000070ADF8180003208DF81A0018208DF88A
:103A90001B0006A97448FDF707FE4FF48060ADF8DF
:103AA000180048208DF81B0006A96F48FDF7FCFDA3
:103AB0004FF4E13002900020ADF80C00ADF80E009C
:103AC000ADF81000ADF814000C20ADF81200002085
:103AD000ADF80000ADF802004FF40070ADF804003E
:103AE0000020ADF8060069465E48001FFFF7FAFDAA
:103AF00002A95C48001FFFF79EFD01215948001FE5
:103B0000FFF707FE07B000BD5649088000BF5549C2
:103B1000091F098801F040010029F8D070470BE027
:103B200010F8011B4F4A118000BF4E49091F098838
:103B300001F040010029F8D001780029F0D1704748
:103B400000B50D20FFF7E0FF0A20FFF7DDFF00BD05
:103B500000B5024609E010780A2802D1FFF7F0FF0D
:103B600002E01078FFF7D0FF521C10780028F2D145
:103B700000BD10B585B0044669462046FFF731FF09
:103B80006846FFF7E5FF05B010BD30B505460C46A9
:103B90002846FFF7DDFF2046FFF7EBFF33A0FFF7D6
:103BA000D7FF30BD70B588B004460D4613461C2BB8
:103BB00001DD08B070BD0021D81C0DF80010882070
:103BC0008DF800008DF801408DF80230002205E0EC
:103BD000A95CD01C0DF80010501CC2B29A42F7DB51
:103BE00000220BE0D81C1DF800001DF8021008444C
:103BF000C1B2D81C0DF80010501CC2B2D81C8242B1
:103C0000F0DB002205E01DF80200FFF77DFF501CED
:103C1000C2B2181D8242F6DB00BFCAE713B584B0FA
:103C200004ACE0788DF80000A0788DF80100607891
:103C30008DF8020020788DF8030005ACE0788DF84F
:103C40000400A0788DF8050060788DF806002078D3
:103C50008DF8070008226946A120FFF7A3FF06B0F0
:103C600010BD000004380140000801400A000000B7
:103C700000B589B001210420FEF7A0F90121084612
:103C8000FEF7A9F901210220FEF7A5F908A8FDF722
:103C900095FD0320ADF8200004208DF823000320BB
:103CA0008DF8220008A97F48FDF7FEFC4FF0804008
:103CB000FEF7ECF94FF08040FEF70FFD0121880779
:103CC000FEF7A5FF012211469007FEF7EDFC4FF627
:103CD000FF70ADF818000020ADF81400ADF81A0020
:103CE000ADF8160005A94FF08040FEF73AFA002320
:103CF0001A4603214FF08040FEF76FFD02A8FEF741
:103D0000A6FC0620ADF8100002A94FF08040FEF797
:103D100006FC47F230514FF08040FEF748FF01218A
:103D20008807FEF7A7FD01218807FEF7A2FC0920FE
:103D3000ADF8180040F28330ADF814000020ADF863
:103D40001A00ADF8160005A95748FEF70AFA4FF415
:103D5000A060FDF718FE1D208DF8040001208DF8ED
:103D600005008DF806008DF8070001A8FDF711FE8B
:103D700009B000BD10B5012211464B48FEF794FC76
:103D800001214948FEF775FC01214748FEF753FF22
:103D900010BD00204549C8600860486044498860FB
:103DA000C86008604860704710B541488068401C92
:103DB0003F49886008460068401C0860086800EBBE
:103DC000D0714910A0EB410151BB39498868C11736
:103DD00000EB91718910A0EB810171B94FF0804027
:103DE000808CA0F5EA40303831494968401A2F49A3
:103DF000486000202E4948600FE04FF08040808CE2
:103E0000A0F5EA403038294948604FF08040808C66
:103E1000A0F5EA403038264948600020244908606F
:103E200023498868C11700EB91718910A0EB8101CB
:103E300091B91E4801684FF08040808CA0F5EA409F
:103E4000303808441949086000201949886047F251
:103E500030504FF080418884012000F0B8F91349B8
:103E6000C860086801F036F91249C8610F4948680E
:103E700001F030F91049C8610C48C0680F49C861A9
:103E80000F480C490862084600F053F80B490862D5
:103E9000084600F04EF80B4908600846006800F03C
:103EA00045FA10BD00080140000400402800002031
:103EB0003C0000204C00002078000020A4000020DE
:103EC000000010C7100000200021016041608160E7
:103ED000C160016141618161C161016241628162D0
:103EE000704730B5DDE90345016042608360C4601E
:103EF000456230BD0CB54748FFF7E6FF4648FFF77F
:103F0000E3FF4648FFF7E0FF4548464900231A46CD
:103F1000CDE9001041033F48FFF7E3FF4248434922
:103F20000023434ACDE9001042493C48FFF7D9FF3E
:103F30000CBD2DE9F0410446002500260027D4E9F8
:103F4000071001F02FFAA0610021606801F06EF8FF
:103F500001D1002000E0A06980464146206900F0C0
:103F600035FF2061A169206801F014F90546216937
:103F7000606801F00FF90646D4E9051001F012FA65
:103F80008046A16801F006F907463046E16801F075
:103F9000CDF906D8A169206901F004FA2061E6682C
:103FA0000FE0E06880F000483146404601F0BEF97D
:103FB00007D8A169206901F0F5F92061E06880F077
:103FC00000463146284600F001FF8046394600F0A1
:103FD000FDFEA062D4E9091001F0A8F902D8606AD8
:103FE000A0620BE0606A80F000484046A16A01F0E0
:103FF0009DF903D8606A80F00040A062A06960610A
:104000000D49606948612069086108468562A06AB7
:10401000BDE8F0814C00002078000020A4000020C2
:1040200000007A440000FA440000164500409C4518
:104030000AD7233C0000A040D000002000B587B084
:104040004FF40040FDF71EFF01214FF40170FDF712
:10405000B5FF7E48FCF7F6F92020ADF804000020FB
:104060008DF8070001A97A48FDF71EFB0020029099
:104070008DF80C008DF80D004FF4602004900020A6
:10408000059001208DF8180002A97048FCF707FA86
:1040900001231A4605216D48FCF799FA01216B4866
:1040A000FCF729FA6948FCF748FA00BF6748FCF7B3
:1040B00049FA0028FAD16548FCF74EFA00BF634878
:1040C000FCF74FFA0028FAD102216048FCF7B8FB50
:1040D00007B000BD10B501231A4605215B48FCF767
:1040E00076FA01215948FCF706FA00BF0221574829
:1040F000FCF793FB0028F9D002215448FCF7A0FB01
:104100005248FCF7CBFA10BD2DE9FF5F4FF00009D4
:1041100000241FE0FFF7DEFF019000F0F3FF4FF0F7
:104120007E51029001F036F84FF08B41039000F081
:10413000BBFE834600F01EFE07464FF06632454B3D
:1041400000F01AFD054600F08DFB824600F025F9CF
:10415000601C84B242F210708442DBDB3E49484668
:1041600000F0A2FE3D490860002424E0FFF7B2FF02
:10417000009000F0C7FF4FF07E51019001F00AF867
:1041800083464FF08B4100F08FFE029000F0F2FD6D
:1041900005464FF066322F4B00F0EEFC074600F06C
:1041A00061FB039000F0F9F88246494600F00EFEEC
:1041B0008146601C84B240F6B8308442D6DB284980
:1041C000484600F071FE25490860BDE8FF9F2DE9D3
:1041D000FF5F0446FFF77EFF009000F093FF4FF073
:1041E0007E51019000F0D6FF4FF08B41029000F01D
:1041F0005BFE834600F0BEFD07464FF06632154B6E
:1042000000F0BAFC054600F02DFB824600F0C5F830
:10421000814612480168484601F0C4F80390012C19
:104220000FD11049039800F0B5FF814600F0A2FDC0
:1042300007460D4A0D4B00F047FB054600F012FB08
:104240000390039804B0BDE8F09F000000240140F3
:104250000008014066660A4000204B472400002009
:1042600000803B4500007A449A9999999999B93F01
:1042700000B589B0FEF7E2FCFEF726FF01210D2014
:10428000FDF79CFE0121C802FDF798FE4FF4106077
:10429000ADF8040018208DF8070003208DF8060003
:1042A00001A93148FDF700FA40F6C310ADF81C0033
:1042B0000020ADF81800ADF81E00ADF81A008DF81A
:1042C000200006A8FEF7C5FC6020ADF8080001201C
:1042D000ADF80A000020ADF80E000120ADF80A008C
:1042E000ADF80C000020ADF81000ADF8140002A8E5
:1042F000FEF7CCFC0820FFF715F801210020FFF79E
:1043000064F802A8FEF73AFD0820FFF717F801212C
:104310000320FFF75AF80120FEF7F5FF0120FEF712
:10432000A3FE0120FEF7A3FE09B000BD70B5044650
:104330000021204600F0FAFF09D8204600F0AAFE2E
:104340000A490880002009490C3108800AE084F0FD
:104350000045284600F09EFE04490C3108800020EC
:104360000249088070BD000000080140342C014063
:104370003748384908603848486001208860002084
:10438000C860012008610020C86108628861486136
:1043900048624FF07E50886270472DE9F041044634
:1043A00025462C49C86800F095FE074629498868CB
:1043B00000F090FE80462748C169404600F0EAFEC2
:1043C0000646394600F002FD224948610A46116856
:1043D000106A00F0FBFC1F4988610A465168906929
:1043E00000F0F4FC06461B498869314600F05CFD8C
:1043F0001849486208464169284600F0D3FF07463D
:104400001448416A384600F0C5FE06461148416925
:10441000304600F0DBFC0F49C861086900F05AFE25
:1044200080460C48416A404600F0B4FE0746094801
:10443000816A384600F0ABFF06460648816930467F
:1044400000F0A8FE034908620846C069BDE8F08193
:1044500077CC2B32FC000020A38F793800B589B0CF
:10446000FCF708FA06A8FCF723FB01212E48FDF70C
:10447000B2FD01214FF4EB10FDF7E6F90120ADF894
:10448000040048208DF8070001A92848FDF70CF921
:104490000220ADF8040003208DF8060018208DF8E6
:1044A000070001A92148FDF7FFF800208DF818004A
:1044B0008DF819008DF81A008DF81B008DF81C007E
:1044C0008DF81D0001208DF81E0000208DF81F00C2
:1044D00007208DF8200006208DF821000520ADF87A
:1044E000220006A8FCF7D1F900208DF808008DF80D
:1044F000090001208DF80A0045F25050ADF80C007B
:104500000020ADF80E004FF6F870ADF81000002056
:10451000ADF81200ADF8140001208DF8160002A8C5
:10452000FCF745FA09B000BD21000002001401406B
:1045300030BF704720BF704740BF7047BFF36F8FD9
:104540007047BFF34F8F7047BFF35F8F704701DF36
:104550007047EFF31480704780F31488BFF36F8FB8
:104560007047EFF30980704780F309887047EFF3D5
:104570000880704780F30888704762B6704772B64B
:104580007047EFF31080704771B6704761B670479F
:10459000EFF31380704780F311887047EFF31280B8
:1045A000704740BA704700BA7047000003480047A0
:1045B00003480449044A054B7047000031010008D4
:1045C0008801002088090020880500208805002037
:1045D000704700000FB4044910B503AA029800F018
:1045E000E1F810BC5DF814FB0C0000202DE9F0414F
:1045F0000E460446002020622046E168884730B31A
:10460000252805D0D4E901219047206A401CF2E713
:10461000E168204600278847050018D0A5F1410031
:10462000192802D820354FF4006732462946204623
:104630002760FBF7B7FD40B1012804D0F61D26F036
:1046400007060836D8E7361DD6E72846DAE7206A97
:10465000BDE8F08170B504460D4621461068AFF301
:1046600000802188090502D50F4A7A4402E00E4AEB
:104670007A440E32002104F1240305E000F00F0615
:104680000009965D5E54491C0028F7D1207800236C
:10469000000704D5702D02D009B102231132204643
:1046A000BDE8704000F025B8340E000010B5431C82
:1046B00002E010F8011B71B18107FAD14FF001320D
:1046C00002C88C1A8C4314EAC211F9D0C01A0A0627
:1046D00003D0C01E10BDC01A10BD0A0401D0801E38
:1046E00010BD0902FCD0401E10BD704770477047D6
:1046F00070472DE9F0470D4699469246044600F171
:1047000024080168880604D5E06921F010012160C1
:1047100000E00120A84201DD471B00E00027A1695D
:104720007A1902EB0900081AA0612078C00602D4A9
:104730002046AFF30080002608E0D4E901211AF8F2
:1047400006009047206A401C761C20624E45F4DB30
:104750002078C0060AD52046AFF3008006E0D4E9F1
:10476000012130209047206A401C2062381EA7F1AA
:104770000107F4DC07E0D4E9012118F805009047AF
:10478000206A401C2062281EA5F10105F3DC2046AA
:10479000AFF300802078000602D50220BDE8F08744
:1047A0000120FBE7074B70B50D467B4400F011F884
:1047B0000446284600F020F810B14FF0FF3070BDDD
:1047C000204670BD1DF2FFFF01694A1C0261087896
:1047D000704700B58FB0CDE9013100210591054941
:1047E0007944CDE9031011466846FFF7FFFE0FB08C
:1047F00000BD0000E5FFFFFF007B00F08000704778
:10480000754600F02BF8AE4605006946534620F089
:104810000700854618B020B5FFF7CAFEBDE8204066
:104820004FF000064FF000074FF000084FF0000B6C
:1048300021F00701AC46ACE8C009ACE8C009ACE81F
:10484000C009ACE8C0098D46704710B50446AFF307
:1048500000802046BDE81040FBF7B6BC004870471A
:104860002801002021F00042A2F16052B2F5801F21
:1048700001F0004328BFD2F17F6C0BD95FEA001C26
:1048800043EAC20242EB507018BF704728BF20F0C5
:1048900001007047B2F5801FBCBF184670474FEA51
:1048A000410C1CF5001F02D2084600F03ABD70B55D
:1048B00000F00CFA00000089FFF7F6BF4FF000404F
:1048C000A0F58000704700002DE9C04130B4DFF84A
:1048D000A0C23CEA111418BF3CEA131400F0EC80AB
:1048E00081EA03051CEA111444EAD57418BF1CEAD6
:1048F000131500F0C780A4EB05044FF0004545EA0E
:10490000C12145EAC32341EA505143EA525304F11D
:104910007F74994204F500344FEAC0204FEAC22266
:1049200008BF904200F09C804FEA13650FF24016DA
:10493000765D4FEA134506FB05F7C7F1807706FB66
:1049400007F74FEAD737A7FB03687642C8F58038E8
:10495000A7FB06CE38BFA8F1010807FB08E64FF019
:10496000000EA6FB028CE6FB03CEDCF1000CCEF1C0
:10497000004E38BFAEF1010EA6FB0C584FF00007F9
:104980004FF00005E6FB0E87A1FB08C6A0FB07CE93
:1049900016EB0E0645F10005E1FB076515F1E04E4B
:1049A0007EBFA4F580345FEA46066D4116F18007AC
:1049B00045F100054FEA17274FEA066647EA056703
:1049C000A6F1DE46B6F1805F4FEA15251FD93846BD
:1049D00024F0010C05EBC471BCF1FE6F01EB0C116E
:1049E00002D8F0BCBDE8008124425CBF01F5801E06
:1049F0009EEAC47F02D4F0BCBDE80081244238D4D2
:104A0000F0BCA1F1C041BDE8004100F0ADB94FEAF2
:104A1000D22242EA43524FEAD323A7FB02864FEA4F
:104A2000D02040EA415007FB03661EEA0E0F4FEA12
:104A3000D12105FB026658BFA6EB0056B6EB005627
:104A40004FEA520E4EEAC37E18EB0E0E56EB530E93
:104A5000BDD518EB02085E417F1C55F10005B6E795
:104A60004FF480154FF000074FF000064FF000089C
:104A7000ADE7F0BC4FF0000001F1C04101F0004192
:104A8000BDE8008111EA0C1F0CEA131500D00CE000
:104A900013EA0C1F00F025804FF00000F0BC81EA03
:104AA000030101F00041BDE80081F0BCBDE8004118
:104AB00081EA030100F058B9F0BCBDE8004170B5CF
:104AC00000F004F9097EFC3E00F007B881EA03011A
:104AD0004FF0000001F00041704781EA030100F04F
:104AE00043B9F0BCBDE800414FF0000021497047D8
:104AF000FFFDFBF9F7F5F4F2F0EEEDEBE9E8E6E4A3
:104B0000E3E1E0DEDDDBDAD8D7D5D4D3D1D0CFCD29
:104B1000CCCBCAC8C7C6C5C4C2C1C0BFBEBDBCBB62
:104B2000BAB9B8B7B6B5B4B3B2B1B0AFAEADACAB5D
:104B3000AAA9A8A8A7A6A5A4A3A3A2A1A09F9F9E37
:104B40009D9C9C9B9A9999989797969595949393E9
:104B5000929191908F8F8E8E8D8C8C8B8B8A898980
:104B60008888878786858584848383828281818003
:104B70000000FF070000F87FDFF848C170B51CEAAD
:104B8000111E1EBF1CEA13159EEA0C0F95EA0C0FAE
:104B900000F06F8081EA030423EA4C134EEAD47ECE
:104BA00021EA4C1141F4801143F48013AE44A1FB7F
:104BB000024CA0FB0365AEF17F7E361955EB0C0568
:104BC000A1FB034C4CF10003A0FB021C16EB0C06EE
:104BD000654153F10003094218BF46F0010613F482
:104BE000007F0BD14FEA03314FEA0530340341EA2D
:104BF000155140EA16506FF003020AE04FEAC32154
:104C00004FEAC520F40241EA555140EA56506FF090
:104C1000020202EB2E4201EB025585EACE710AD068
:104C20005FEA440C18BF24F0004450F1000041F149
:104C3000000120EAD47040F2FE7C624500D270BDD3
:104C4000A84214BF4FF080444FF04044002E08BFEC
:104C50000024BEF1806FA8BFA1F1C041BDE8704043
:104C600080F282804FF0000001F1C04101F000416C
:104C700070479EEA0C0F0CEA131518BF95EA0C0F4B
:104C800006D04FF0000081EA030E0EF0004170BD27
:104C900000F01CF88900013E00F007B800F009B8E8
:104CA0004FEA430C5FEA5C5C08D081EA030100F044
:104CB0005BB84FEA410C5FEA5C5CF6D14FF0000054
:104CC000014970470000FF070000F87F0EF1020E57
:104CD0002EF0030E5EF8046B364205D4012A43EB36
:104CE000030515F5001F12D8012841EB010C1CF536
:104CF000001F0CD80ED14FEAD17C15F5001F0CEB2C
:104D00004C0C0CF1020C08BF4CEBD37C04E04FF0D0
:104D1000080C01E04FEAD37C0CEB4C0526FA05F6B3
:104D200006F00706B6F1040C06D20EEB860CBDE8C1
:104D300070404CF0010C6047DFE80CF0090B0202F8
:104D40004FF000414FF00000A1F5002170BD194661
:104D50001046012851EB010418BFD4F5001484BF9C
:104D6000002001F0004170BD0808A0F500114FEAD5
:104D70003101704743004FEAD30C4FEA3C0C4340EB
:104D80001FBF40070CF1605113F0FE4F70471CF03D
:104D9000006F03D100200CF0004170470CF000437D
:104DA00043EA507010B540EACC0000F074FA00BF3E
:104DB000000000924FEA0001FFF7D6BF4FF000411C
:104DC0004FF00000A1F500217047000090EA010FAC
:104DD00048BF81F0004100F1EC82421A3CBF801ACA
:104DE00089184FEAD0524FF07F4C1CEA410FA2EBDA
:104DF000D15318BF9CEA026F00F03B804FF0004C8B
:104E00004CEA00204CEA012121FA03FC10EB0C0CC7
:104E10001ED202F1FF325FEA1C2040EBC25038BFC5
:104E200070471CF07F0F4FEA400C18BFBCF17F4F5A
:104E300038BF7047C3F12003994008BF20F001003C
:104E4000BCF17F4F38BF7047A0F1C04000F069BA95
:104E50004FEA3C00000A40EBC25028BF1CF0FF0F95
:104E60004FEA400CE6D018BFBCF17F4F38BF704707
:104E7000EAE79CEA026F05D010EA5C0F08BF00F079
:104E80000040704710B500F006FA00BF64FBBE3E5C
:104E9000401058BFC0F14040491058BFC1F14041D7
:104EA0008142EFF3008070474FF47F0C1CEAD01270
:104EB0001EBF1CEAD11392EA0C0F93EA0C0F00F00C
:104EC000858090EA010F48BF42F4807240F4000CE4
:104ED00041F400002CF07F4120F07F4000B581427A
:104EE000A2EB03020FF2081CACEB504EC0F1000025
:104EF0009EF800E04FEA4E0E00FB0EFC38BF490062
:104F00004FEA2C1C02F5FA020CFB0EF34FEACE1E00
:104F10004FEA112C4FEAC1210EEB635E42EB2242B5
:104F20000EFB0CFC4FEA1C5300FB03114FEA112C43
:104F30004FEA01310EFB0CFC4FEADC4C00FB0C117C
:104F4000C14228BF09184CEB03335DF804EB10EBAA
:104F5000410143EBC250B2F57C0F38BF704729D5F1
:104F600012F0F00F1CBF00F1C04000F0004070478D
:104F7000008182838485868788898B8C8D8E8F9132
:104F80009293959697999A9C9D9FA0A2A3A5A7A856
:104F9000AAACAEB0B2B3B5B7B9BCBEC0C2C5C7C982
:104FA000CCCED1D4D7D9DCDFE2E6E9ECF0F3F7FAE6
:104FB000FE0000004FEA400C0CF1807CBCF17E4FFB
:104FC00028BF7047B0F1C04000F0ABB990EA010FC4
:104FD0000CEAD11348BF42F48072624538BF634582
:104FE00007D213F47F0F16D080EA010000F00040D2
:104FF000704710B500F04FF9097EFC3E00F005B88F
:1050000080EA010000F00040704780EA010000F0F3
:10501000004000F086B912F47F0F04BF02487047C9
:1050200080EA010000F07DB90000C07F50EA010C69
:1050300000F113801CF5000F58BFBCF5000F01D420
:105040008842704707D710F5000F58BF11F5000FC1
:1050500015D488427047894270471CF5000F04D56B
:10506000BCF5000FF7D5814270474FF0807C1CEBF8
:10507000400F38BF1CEB410F01D28142704710B581
:1050800000F009F9922449004FF000504FF0805190
:10509000FFF7FEBEC10DD1F19E0206DB4FEA0023F1
:1050A00043F0004323FA02F07047004207D54FEA6D
:1050B0004001B1F1FE4F02D24FF00000704710B531
:1050C00000F0E9F849922480002070476FEA200040
:1050D0007047000010F0004148BF4042B0FA80F332
:1050E00010FA03F2C3F19D030BD051EAC35101EB57
:1050F0001220530638BF704700F1010008BF20F0AE
:1051000001007047B0FA80F310FA03F2C3F19D0377
:105110000AD0D90501EB1220530638BF704700F1C1
:10512000010008BF20F001007047000050EA010CA8
:1051300000F113801CF5000F58BFBCF5000F01D41F
:105140008842704707D710F5000F58BF11F5000FC0
:1051500015D488427047894270471CF5000F04D56A
:10516000BCF5000FF7D5814270474FF0807C1CEBF7
:10517000400F38BF1CEB410F01D28142704710B580
:1051800000F089F8922449004FF000504FF0805110
:10519000FFF77EBE4FF47F0C1CEAD0121EBF1CEA44
:1051A000D11392EA0C0F93EA0C0F00F0478090EABB
:1051B000010F48BF42F480724FF0004C4CEA0020CF
:1051C0004CEA012102EB0302A0FB0113A2F500024D
:1051D000002918BF43F001035B0028BF4FEA3303E7
:1051E00042EB22425FEA132C4CEBC2502EBFBCEBC9
:1051F000436FB2F57C0F70474FEA036CBCF1004F70
:1052000008BF20F00100B2F57C0F38BF70470BD506
:1052100082F0FF0212F5803FC8BF704700F1C04026
:10522000D8BF00F00040704700F5000C5FEA4C0C5E
:1052300048BF7047B0F1C04000F073B890EA010F6A
:105240000CEAD11348BF42F48072624538BF63450F
:1052500004D280EA010000F00040704710B500F071
:105260001AF800BF8900013E00F007B800F009B845
:105270005FEA410C5FEA1C6C08D080EA010000F094
:1052800050B85FEA400C5FEA1C6CF6D14FF000406A
:10529000A0F5800070470EF1020E2EF0030E5EF8AE
:1052A000044B244204D44FEA4102B2F17F4F11D89B
:1052B0004FEA4003B3F17F4F0CD80ED14FEAD07CB8
:1052C000B2F17F4F0CEB4C0C0CF1020C08BF4CEB15
:1052D000D17C04E04FF0080C01E04FEAD17C0CEBEC
:1052E0004C0324FA03F404F00704B4F1040C06D2CE
:1052F0000EEB840CBDE810404CF0010C6047DFE879
:105300000CF0070802024FF00040A0F5800010BD2D
:105310000846420018BFD2F1807288BF00F00040FA
:1053200010BDFF2141EAD050C005704751EA000C82
:1053300000F113801CF5000F58BFBCF5000F01D41D
:105340008142704707D711F5000F58BF10F5000FC5
:1053500015D481427047894270471CF5000F04D56F
:10536000BCF5000FF7D5884270474FF0807C1CEBEE
:10537000410F38BF1CEB400F01D28842704780EAD2
:10538000010081EA000180EA0100FFF7F8BE80F029
:10539000004090EA010F7FF520AD81F0004100F060
:1053A00008B8000090EA010F48BF81F000413FF5C6
:1053B00014AD421A04D882F00042A0EB020011445E
:1053C0004FEAD0524FF07F4C1CEA410FA2EBD15371
:1053D00018BF9CEA026F4AD04FF0004C4CEA002004
:1053E0004CEA012121FA03FCB0EB0C0C0FD412F0B3
:1053F000FE0F36D05FEA4C001DD5001240EBC250C4
:1054000038BF70471CF03F0F18BF70470BE0A2F188
:1054100001025FEA1C2040EBC25038BF70471CF00D
:105420007F0F18BF7047C3F12003994014BF401E7F
:1054300020F00100704780084FEA122308BF704730
:10544000B0FA80FCA2EB0C02CCF1280C60FA0CF054
:1054500093EA122F04BF00EBC25070474FEAC370AB
:105460007047130A5FEADC1008BF7047F6E79CEA52
:10547000026F04D010EA5C0F08BF0020704710B51F
:10548000FFF709FF40DFF63E81F000407047000063
:1054900000000102030401020304060708090204D4
:1054A00006083031323334353637383941424344D7
:1054B000454640305800303132333435363738398C
:1054C0006162636465664030780000000D0A5468CC
:1054D000652043414E206861732073656E642064CB
:1054E0006174613A20307825782C307825782C301A
:1054F0007825782C307825782C307825782C3078E1
:1055000025782C307825782C30782578203078252F
:105510007820307825780D0A000000000D0A5468C4
:10552000652043414E20686173207265636569762A
:105530006520646174613A20307825782C307825B4
:10554000782C307825782C307825782C3078257890
:105550002C307825782C307825782C3078257820D8
:105560003078257820307825780D0A008C55000891
:1055700000000020280000006C010008B45500085D
:1055800028000020600900008801000800000000D9
:10559000000000000000000000000000000000000B
:1055A00000000000000000000000000000000000FB
:0455B00000000000F7
:0400000508000131BD
:00000001FF
