:020000040800F2
:10000000900800207D240008C5020008C7020008EF
:10001000CB020008CF020008D30200080000000055
:10002000000000000000000000000000D9020008ED
:10003000D702000800000000DB020008DD02000813
:10004000DF020008E1020008E3020008E502000800
:10005000E7020008E9020008EB020008ED020008D0
:10006000EF020008F1020008F3020008F5020008A0
:10007000F7020008F9020008FB020008FD02000870
:10008000FF0200080103000803030008050300083D
:100090000703000847030008490300084B03000852
:1000A0004D0300084F0300085103000853030008E4
:1000B0005503000857030008590300085B030008B4
:1000C0005D0300085F030008610300086303000884
:1000D0006503000867030008690300086B03000854
:1000E0006D0300086F030008710300087303000824
:1000F0007503000877030008790300087B030008F4
:100100007D0300087F0300088103000883030008C3
:100110008503000887030008890300088B03000893
:100120008D0300088F030008910300089303000863
:1001300000F002F800F03FF80AA090E8000C8244BA
:100140008344AAF10107DA4501D100F034F8AFF297
:10015000090EBAE80F0013F0010F18BFFB1A43F0A5
:10016000010318470426000024260000103A24BF8B
:1001700078C878C1FAD8520724BF30C830C144BF0C
:1001800004680C607047000000230024002500264E
:10019000103A28BF78C1FBD8520728BF30C148BFEA
:1001A0000B607047642902F0BD81002070471FB5C5
:1001B0001FBD10B510BD02F09BFA1146FFF7F7FF07
:1001C00000F03DF802F0B9FA03B4FFF7F2FF03BC08
:1001D00001F000FF10B501F015FB4FF4803001F085
:1001E00030FB00BF312001F04FFB0028FAD0102077
:1001F00000F004FD022000F0EBFC002001F0A9FB60
:10020000002001F0B8FB4FF4806001F0ABFB4FF42D
:10021000E0114FF4803001F07FFB012001F088FBFA
:1002200000BF392001F030FB0028FAD0022001F095
:1002300082FB00BF01F088FB0828FBD110BDFFF74F
:10024000C9FF482001F06EFE01F01AFF02F0CBF862
:100250000120124908701FE01048007801281BD1C6
:1002600000200E4908700E48007840B949F2041188
:100270000CA002F07AF801200949087007E049F261
:1002800004110BA002F071F8002005490870044821
:1002900001780AA002F006F9DEE70000090000205C
:1002A000000000203132333435363738000000008A
:1002B00061626364656667680000000025640D0A7A
:1002C00000000000704700BFFEE700BFFEE700BF70
:1002D000FEE700BFFEE77047704770477047704702
:1002E0007047704770477047704770477047704756
:1002F0007047704770477047704770477047704746
:1003000070477047704710B586B00024022000F097
:10031000EEFB01A9002000F0BCFA9DF80C0080B9AA
:1003200000BF06E00DF10F00005D1A490855601C82
:10033000C4B2082CF6DB012017490870002000F039
:100340008AFA06B010BD7047704770477047704713
:1003500070477047704770477047704770477047E5
:1003600070477047704770477047704770477047D5
:1003700070477047704770477047704770477047C5
:1003800070477047704770477047704770477047B5
:1003900070477047010000200900002010B50121BE
:1003A000480601F0C6FB00214FF0007001F0C1FBD0
:1003B00010BD10B5014600200123FA4C2360231D17
:1003C0001B6803F0010303B984E00B78012B06D10D
:1003D000F44B1B6843F08003F24C236005E0F14BC3
:1003E0001B6823F08003EF4C23604B78012B06D170
:1003F000EC4B1B6843F04003EA4C236005E0E94BFB
:100400001B6823F04003E74C23608B78012B06D157
:10041000E44B1B6843F02003E24C236005E0E14B12
:100420001B6823F02003DF4C2360CB78012B06D11F
:10043000DC4B1B6843F01003DA4C236005E0D94B1A
:100440001B6823F01003D74C23600B79012B06D1D6
:10045000D44B1B6843F00803D24C236005E0D14B1A
:100460001B6823F00803CF4C23604B79012B06D186
:10047000CC4B1B6843F00403CA4C236005E0C94B16
:100480001B6823F00403C74C23608B799B07CC794E
:1004900043EA04630C7A43EA04434C7A43EA045384
:1004A0004C89641E2343BF4C1C3423600120BD4B88
:1004B0001B6823F00103BB4C2360820201E0531E42
:1004C0009AB2002AFBDCB74B1B1D1B6803F001032B
:1004D00003B1002010BD10B50021037801229A401D
:1004E00091B2B14A126842F00102AF4B1A60AE4AB3
:1004F0001C3212688A43AC4B1C331A608278CAB92A
:10050000A94A0C3212688A43A74B0C331A60C2887E
:10051000438942EA0343A44A4032047842F8343023
:100520008288038942EA03439F4A4032047802EBFF
:10053000C40253608278012A19D19B4A0C32126896
:100540000A43994B0C331A60C288838842EA0343FA
:10055000954A4032047842F834304289038942EAAD
:100560000343914A4032047802EBC402536042785C
:100570003AB98D4A121D12688A438B4B1B1D1A60B3
:1005800006E0894A121D12680A43874B1B1D1A6038
:10059000828932B9844A143212688A43824B1433F6
:1005A0001A608289012A06D17F4A143212680A43EE
:1005B0007D4B14331A60827B012A06D17A4A1C32A1
:1005C00012680A43784B1C331A60774A126822F08B
:1005D0000102754B1A6010BD0021017041708170DD
:1005E000C170017141718171C171032101720221D8
:1005F000417201214181704739B16A4A143212684F
:100600000243684B14331A6006E0664A14321268DB
:100610008243644B14331A60704710B501460020C2
:10062000604A0832126802F08062B2F1806F00D135
:1006300014E05C4A0832126802F00062B2F1006F06
:1006400001D101200AE0574A0832126802F08052B4
:10065000B2F1805F01D1022000E0042004287CD0A8
:10066000514A803A02EB0012126802F001034E4A2E
:10067000803A02EB001213600A7ABAB90A88C2F310
:100680000A020A600A8852050A60474A803A02EB69
:10069000001213680C7A0A6822434C7A22431343EF
:1006A000414A803A02EB0012136016E04A6822F0D9
:1006B00060424A604A68D2004A603B4A803A02EB94
:1006C000001213680C7A4A6822434C7A224313437F
:1006D000354A803A02EB001213608A7A02F00F0268
:1006E0008A72314A803A02EB0012526822F00F03FC
:1006F0002D4A803A02EB001253602B4A803A02EBFB
:10070000001252688B7A1A43274B803B03EB00138D
:100710005A608A7B13064A7B43EA02430A7B43EA18
:100720000223CA7A1343204A803A02EB00129360F4
:100730008A7C13064A7C43EA02430A7C43EA02228B
:10074000CB7B1343184A803A02EB0012D360164A5F
:10075000803A02EB0012126800E006E042F001036A
:10076000114A803A02EB0012136010BD01460020CE
:1007700021B101291AD002293CD129E0094A0832C5
:10078000126802F0010240EA8200064A083212684A
:1007900002F002021043034A08321268C2F3806278
:1007A000104329E00064004000660040F74A1268E8
:1007B00002F4807240EA9210F44A126802F4007265
:1007C00040EA1220F14A1268C2F3C062104313E0FB
:1007D000EE4A126802F4803240EA9230EB4A126824
:1007E00002F4003240EA1240E84A1268C2F3007292
:1007F000104301E0002000BF00BF20B1052804D055
:10080000072806D103E0022005E0002003E00120D4
:1008100001E0002000BF00BF704720B1012809D0CF
:10082000022815D10DE0D949096841F08001D74A65
:1008300011600EE0D549096841F40041D34A1160C6
:1008400007E0D249096841F40001D04A116000E094
:1008500000BF00BF704720B92021CC4A121D116093
:1008600003E02021C94A0832116070470146002088
:1008700029B9C64A121D126802F0030008E00129D6
:1008800005D1C24A0832126802F0030000E00020DD
:10089000704710B504460B46BD4800EB04100068D5
:1008A00000F004001872187A48B9B94800EB041037
:1008B000006840F2FF7101EA5050186008E0B44847
:1008C00000EB041000686FF0604101EAD00058604E
:1008D000AF4800EB0410006800F002005872AC480A
:1008E00000EB0410406800F00F009872A84800EB7D
:1008F00004104068000AD874A54800EB0410806812
:10090000D872A34800EB04108068010A1973A0484C
:1009100000EB04108068010C59739D4800EB041033
:100920008068000E98739A4800EB0410C068D87372
:10093000974800EB0410C068010A1974944800EB52
:100940000410C068010C5974914800EB0410C06891
:10095000000E98742046FFF77EFF10BD00208B49E3
:100960000839096841F00201884A083A11600120FB
:100970001146096801F0020101B90020704700200A
:1009800082490839096821F00201804A083A116059
:1009900000BF1146096801F0020101B9012070474A
:1009A00001460020794A103212680A400AB101203B
:1009B00000E0002070477549103109688143734A8F
:1009C0001032116070470246002002EA01030BB1A9
:1009D000012000E00020704770B504460025402C3F
:1009E0004FD00EDC072C2CD006DC042C31D0052C8B
:1009F00019D0062C76D11DE0082C32D0202C71D1D4
:100A000037E0B4F5806F54D006DCB4F5807F40D079
:100A1000B4F5007F66D144E0B4F5803F59D0B4F519
:100A2000003F5FD14DE0594908680121FFF7CBFF36
:100A3000054659E0554908688915FFF7C4FF054682
:100A400052E0524908684FF48031FFF7BCFF054679
:100A50004AE04E49091D08680821FFF7B4FF054622
:100A600042E04A49091D08681021FFF7ACFF05461E
:100A70003AE04649083108680821FFF7A4FF054617
:100A800032E04249083108681021FFF79CFF054613
:100A90002AE03E49103108680121FFF794FF05461E
:100AA00022E03A49103108680221FFF78CFF054621
:100AB0001AE03649103108680421FFF784FF054623
:100AC00012E03249091F08681021FFF77CFF054634
:100AD0000AE02E49091F08680821FFF774FF054640
:100AE00002E0FFE7002500BF00BF284670BD402898
:100AF0003ED00EDC072827D006DC042829D00528A4
:100B000019D006285ED11AE0082827D0202859D10C
:100B100029E0B0F5806F44D006DCB0F5807F2CD0A2
:100B2000B0F5007F4ED135E0B0F5803F40D0B0F554
:100B3000003F47D141E00121144A116043E04FF4E6
:100B40008071124A11603EE04FF480310F4A11600B
:100B500039E008210D4A121D116034E010210B4AC2
:100B6000121D11602FE00821084A083211602AE0A6
:100B70001021064A0832116025E004491031096845
:100B800021F00101014A103211601CE008640040AC
:100B9000B06500400D49096821F002010B4A11605F
:100BA00011E00A49096821F00401084A11600AE0CD
:100BB0000821064A143A116005E01021034A143A4C
:100BC000116000E000BF00BF7047000018640040E3
:100BD000FD49096801F03801FB4A116011460968B6
:100BE000014311607047F849096821F00801F64A8D
:100BF000116011460968014311607047F2490968A4
:100C000021F01001F04A116011460968014311609A
:100C10007047EE48EC494860ED4848607047EA4844
:100C2000006940F08000E849086170470420E64907
:100C3000C96801F0010109B101200EE0E249C9686B
:100C400001F0040109B1022007E0DF49C96801F0A1
:100C5000100109B1032000E00420704708B500200E
:100C60000090FF20009002E00098401E0090009845
:100C70000028F9D108BD70B504460425FFF7D6FF5A
:100C8000054605E0FFF7EAFFFFF7D0FF0546641EC3
:100C9000012D01D1002CF5D104B90525284670BDE0
:100CA00070B50546042440F6FF70FFF7E4FF0446E4
:100CB000042C19D1C448006940F00200C2490861FF
:100CC00008464561006940F04000086140F6FF7049
:100CD000FFF7D1FF0446012C06D0BB48006941F65E
:100CE000FD710840B8490861204670BD10B5042464
:100CF00040F6FF70FFF7BFFF0446042C18D1B2483E
:100D0000006940F00400B04908610846006940F0FD
:100D10004000086140F6FF70FFF7ADFF0446012C6C
:100D200006D0A948006941F6FB710840A649086150
:100D3000204610BD10B5042440F6FF70FFF79BFF5E
:100D40000446042C3BD1A1489F498860A048886094
:100D50000846006940F0200008610846006940F03C
:100D60004000086140F6FF70FFF785FF0446042C41
:100D70001CD19548006941F6DF710840924908612D
:100D80000846006940F010000861A52091490880DC
:100D90000F20FFF770FF0446012C10D08A4800692D
:100DA00041F6EF7108408849086108E0012C06D03F
:100DB0008548006941F6EF71084083490861204683
:100DC00010BD70B505460E4604240F20FFF753FFF3
:100DD0000446042C25D17C48006940F001007A4982
:100DE00008612E800F20FFF746FF0446042C0FD128
:100DF000300C68800F20FFF73EFF0446012C10D016
:100E00007148006941F6FE7108406F49086108E0C9
:100E1000012C06D06C48006941F6FE7108406A4911
:100E20000861204670BD70B505460E4604240F20AB
:100E3000FFF721FF0446042C13D16348006940F0FA
:100E40000100614908612E800F20FFF714FF04465E
:100E5000012C06D05C48006941F6FE7108405A49F1
:100E60000861204670BD70B505460E4604240F206B
:100E7000FFF701FF0446042C17D1544852498860FB
:100E8000534888600846006940F0100008612E80D1
:100E90000F20FFF7F0FE0446012C06D04A480069F7
:100EA00041F6EF71084048490861204670BD2DE9C0
:100EB000F04704464FF6FF763746B046B146042564
:100EC000E443E6B2C4F30727C4F307484FEA1469C2
:100ED0000F20FFF7D0FE0546042D40D13B483A498C
:100EE00088603B4888600846006940F0100008614F
:100EF000FF2E06D03748083006800F20FFF7BBFED4
:100F00000546042D08D1FF2F06D032480A3007804D
:100F10000F20FFF7B0FE0546042D0AD1B8F1FF0FF0
:100F200007D02C480C30A0F800800F20FFF7A3FE5C
:100F30000546042D0AD1B9F1FF0F07D025480E3020
:100F4000A0F800900F20FFF796FE0546012D06D071
:100F50001D48006941F6EF7108401B4908612846A9
:100F6000BDE8F08770B50546042440F6FF70FFF732
:100F700082FE0446042C4AD1144813498860144860
:100F800088600846006940F0200008610846006952
:100F900040F04000086140F6FF70FFF76CFE044629
:100FA000042C2BD10848006941F6DF71084006493E
:100FB00008610846006940F01000086165B1002032
:100FC000044908800BE0000000200240230167452F
:100FD000AB89EFCD00F8FF1FA5204549088040F6FA
:100FE000FF70FFF748FE0446012C10D0414800690D
:100FF00041F6EF7108403F49086108E0012C06D036
:101000003C48006941F6DF7108403A4908612046D2
:1010100070BD2DE9F04107460D46164604243648BA
:1010200034498860354888600F20FFF724FE044665
:10103000042C1AD12F48006940F010002D49086196
:1010400047EA0500304340F0F8002949891C088030
:101050000F20FFF710FE0446012C06D0254800693A
:1010600041F6EF710840234908612046BDE8F08150
:101070002048C069800870471E48006A70470020F9
:101080001C49C96901F0020109B1012000E00020FA
:10109000704700201749096801F0200109B10120BB
:1010A00000E00020704729B1124A12690243114B37
:1010B0001A6104E00F4A126982430E4B1A617047AD
:1010C00001460020012908D10A4AD26902F0010232
:1010D0000AB1012008E0002006E0064AD2680A4072
:1010E0000AB1012000E0002070470249C860704743
:1010F00000F8FF1F0020024023016745AB89EFCDB8
:1011000010B50446C549601A8C422FD009DCC4488A
:10111000204480B1B0F5806F16D0B0F5006F4AD191
:101120001BE0B0F5806F2AD0B0F5006F30D0B0F57D
:10113000406F40D135E00121042000F0EDFC00219A
:10114000042000F0E9FC37E00121082000F0E4FC75
:101150000021082000F0E0FC2EE00121102000F02A
:10116000DBFC0021102000F0D7FC25E0012120202D
:1011700000F0D2FC0021202000F0CEFC1CE0012178
:10118000402000F0C9FC0021402000F0C5FC13E025
:101190000121802000F0C0FC0021802000F0BCFC78
:1011A0000AE00121080200F0B7FC00214FF4807032
:1011B00000F0B2FC00E000BF00BF10BD10B501217F
:1011C000084600F0A9FC0021012000F0A5FC10BD9C
:1011D0002DE9F041024600250026002000230024CE
:1011E000002791F803C00CF00F0591F803C00CF034
:1011F000100CBCF1000F03D091F802C04CEA0505B9
:1012000091F800C0BCF1000F30D0146800202AE033
:101210004FF0010C0CFA00F3B1F800C00CEA030621
:101220009E421FD183004FF00F0C0CFA03F7BC4312
:1012300005FA03FC4CEA040491F803C0BCF1280F42
:1012400005D14FF0010C0CFA00FCC2F814C091F863
:1012500003C0BCF1480F05D14FF0010C0CFA00FCA3
:10126000C2F810C0401C0828D2D31460B1F800C0E6
:10127000BCF1FF0F34DD546800202EE000F1080CB3
:101280004FF0010808FA0CF3B1F800C00CEA0306AD
:101290009E4221D183004FF00F0C0CFA03F7BC43A0
:1012A00005FA03FC4CEA040491F803C0BCF1280FD2
:1012B00005D100F1080C08FA0CF8C2F8148091F876
:1012C00003C0BCF1480F07D100F1080C4FF0010832
:1012D00008FA0CF8C2F81080401C0828CED35460DD
:1012E000BDE8F0814FF6FF71018002218170042179
:1012F000C17070470246002093680B400BB101207B
:1013000000E0002070470146886880B270470246BE
:101310000020D3680B400BB1012000E00020704793
:101320000146C86880B270470161704741617047EB
:101330000AB1016100E041617047C16070474FF43C
:1013400080320A4382618161826182698269704769
:1013500002460020334B18684FF68073184040EA6D
:10136000021008432F4B186070472F49C86170471F
:10137000F0B50A460023002400210025294E71689B
:10138000C0F3034583B200F44016B6F5401F08D100
:1013900021F07061234E766826F07066214F7E60E2
:1013A00012E000F48016B6F5801F06D1032606FA77
:1013B00005F4A14341F0706106E0460D360103FAE1
:1013C00006F6B14341F0706122B1460D360103FAD1
:1013D00006F63143134E7160F0BD30B500228B0725
:1013E0001C0F0F2303FA04F20E4B08338C1053F832
:1013F000243093430B4C08348D1044F82530234699
:101400008C1053F824308C07240F00FA04F4234383
:10141000044C08348D1044F8253030BD00140140D0
:1014200000F8FEBF00000140000020420020411EE5
:10143000ED4A11600A09EC498039C1F88420411E47
:101440004FF0E022C2F880120A09E8490A6000BFA2
:1014500004E00022E64941F82020401C0F28F8D380
:10146000704700204FF02061E24A11600021121DF8
:101470001160E149121D11600021121D1160121D41
:10148000116000BF05E00022DA49143141F8202044
:10149000401C0328F7D30021D64A20321160491E90
:1014A000121D1160121D1160121D11607047D2498A
:1014B0000143D04A083211607047F0B50021002284
:1014C000002300250F24C678002E35D0C94E0836DB
:1014D000366806F4E066C6F5E066310AC1F1040537
:1014E000CC40467806FA05F186782640314309015A
:1014F0000678B607F60EB140BD4E0778BF1056F815
:1015000027200678B607F70EFF2606FA07F39A4358
:1015100019400A43B64E0778BF1046F827200678D0
:1015200006F01F070126BE4007787F11BF0007F1B4
:10153000E027C7F800610BE0067806F01F070126D8
:10154000BE40A94F90F800C04FEA6C1C47F82C60D1
:10155000F0BD0021017041708170C170704710B5FD
:1015600000F075FF10BD10B500F06FFF10BD10B595
:1015700000F072FF10BD10B500F070FF10BD10B587
:101580000446200100F06FFF10BD10B500F06EFFA3
:1015900010BD98480068C0F30930704710B5014687
:1015A0000020002201F01F04012303FA04F28E4BF5
:1015B00080334C1153F824301340934201D1012061
:1015C00000E0002010BD8D490860704700F01F0248
:1015D00001219140854A121F431142F823107047A0
:1015E00084480068C0F30900704710B50146002028
:1015F000002201F01F04012303FA04F27B4B7C3329
:101600004C1153F824301340934201D1012000E0E3
:10161000002010BD7748001F00687047784A0A40D4
:101620000243744B1B1D1A6070477348001D7149BB
:101630000831086070477048401C6E4908310860E6
:10164000704739B16B4A0C3212680243694B0C3354
:101650001A6006E0674A0C3212688243654B0C330D
:101660001A60704710B5002200F01F04012303FA2E
:1016700004F239B15F4B20331B6813435D4C2034B7
:10168000236006E05B4B20331B689343594C2034A6
:10169000236010BDF0B503460C4615460020FF221E
:1016A00000260021534F08373F6807F4E067C7F56D
:1016B000E067390AC1F10400CA4004FA00F105EA02
:1016C00002073943090103F0C0008009C3F3012276
:1016D000D700B9404FEAC20CFF2707FA0CF6454F76
:1016E000143757F82070B743DFF808C10CF1140C19
:1016F0004CF82070674657F820700F434CF8207064
:10170000F0BD10B50246002000230021910A01F02F
:101710000F01012404FA01F1364C2034246804EA54
:1017200001038B4201D1012000E0002010BD002107
:1017300000F01F012F4A126801238B401A432D4BE2
:101740001A60704710B5002100F01F01294A126885
:101750004B1E01249C402243264B1A6010BD10B53D
:101760000246002000230021C2F38331012404FA41
:1017700001F1204C2034246804EA01038B4201D19A
:10178000012000E0002010BD30B5014600200022FD
:101790000023C1F38142C1F301531AB9154C283417
:1017A000206811E0012A0CD1124C24342468DD0099
:1017B00024FA05F0022B02D000F00F0004E0C0B2C2
:1017C00002E00C4C2C34206830BD01460020002281
:1017D000C1F380521AB9074B3033186802E0054B49
:1017E000343318687047000080E100E084E200E0D4
:1017F00000E400E004ED00E00000FA0500EF00E086
:1018000080FFFF1FE048006840F00100DE490860EB
:1018100008464068DD490840DB49486008460068E2
:10182000DB490840D84908600846006820F4802059
:1018300008600846406820F4FE0048600020886088
:101840007047D149096821F48031CF4A11601146AF
:10185000096821F480211160B0F5803F03D0B0F514
:10186000802F0ED106E0C849096841F48031C64A8C
:10187000116007E0C449096841F4A021C24A11601F
:1018800000E000BF00BF704710B5014600220023F2
:1018900000204A11012A02D1BB4C236806E0022A2B
:1018A00002D1B94C236A01E0B74C636A01F01F0210
:1018B000012494401C400CB1012000E0002010BD28
:1018C00010B5002400BF3120FFF7DEFFB1490870DA
:1018D000B1480068401CB0490860AE48007828B99B
:1018E0000846006840F2FF118842ECD13120FFF732
:1018F000CBFF08B1012400E00024204610BD0146C2
:101900000020A14A106820F0F80040EAC1001060F1
:101910007047A24908607047024600209A4B5868F9
:1019200020F47C1042EA01031843974B586070473B
:101930009A490866704701460020934A506820F093
:1019400003000843506070478F48406800F00C0067
:101950007047014600208C4A506820F0F000084390
:101960005060704701460020874A506820F4E060CC
:1019700008435060704701460020834A506820F4B5
:10198000605040EAC1005060704729B17E4A527AE7
:1019900002437D4B5A7204E07B4A527A82437A4B6F
:1019A0005A7270477D49D83108607047014600205F
:1019B000754A506820F44040084350607047002149
:1019C000714A20321170704A82F82010012802D02A
:1019D00004280AD104E001216B4A2032117005E08D
:1019E0000521694A2032117000E000BF00BF704736
:1019F0006B49086070476449096A0143624A116291
:101A00007047674944390860704730B500210022AB
:101A1000002400235C4D6D6805F00C0121B1042900
:101A200005D0082923D105E05E4D056022E05D4D1B
:101A300005601FE0544D6D6805F47012022505EB3A
:101A40009242514D6D6805F480341CB9564D554392
:101A500005600BE04C4D6D6805F400351DB1524D2D
:101A60005543056002E04F4D5543056002E04D4D82
:101A7000056000BF00BF444D6D6805F0F001090925
:101A80004A4D6B5C0568DD4045603F4D6D6805F46F
:101A9000E061090A454D6B5C4568DD4085603A4D63
:101AA0006D6805F46051C90A404D6B5C4568DD40C6
:101AB000C560354D6D6805F44041890B3C4D6B5C4C
:101AC000C568B5FBF3F5056130BD29B12E4A5269F1
:101AD00002432D4B5A6104E02B4A526982432A4B40
:101AE0005A61704729B1284A92690243264B9A618C
:101AF00004E0254A92698243234B9A61704729B1D9
:101B0000214AD2690243204BDA6104E01E4AD269BD
:101B100082431D4BDA61704729B11B4AD2680243E8
:101B2000194BDA6004E0184AD2688243164BDA6037
:101B3000704729B1144A12690243134B1A6104E039
:101B4000114A12698243104B1A6170471449403997
:101B5000086070471149C86470470B49C8717047E5
:101B60000948406A40F08070074948627047014662
:101B70000020054A92680A400AB1012000E00020D6
:101B80007047014988727047001002400000FFF85A
:101B9000FFFFF6FE0C000020100000200000424273
:101BA0008004424200127A0000093D0054270008D8
:101BB0006427000810B50446D749601A8C422BD020
:101BC00006DCD648204498B1B0F5806F38D119E0D2
:101BD000B0F5806F2AD0B0F56C4F31D10121880368
:101BE000FFF79AFF00214FF48040FFF795FF28E0B0
:101BF00001214804FFF79DFF00214FF40030FFF75B
:101C000098FF1EE001218804FFF793FF00214FF4A5
:101C10008020FFF78EFF14E00121C804FFF789FF41
:101C200000214FF40020FFF784FF0AE0012108059E
:101C3000FFF77FFF00214FF48010FFF77AFF00E0ED
:101C400000BF00BF10BD2DE9F04786B005460E4627
:101C50000024A24600BF00BF00272F462C8A4CF666
:101C6000FF700440F08804432C82AC894EF6F310D8
:101C70000440B08831890843718908430443AC812A
:101C8000AC8A4FF6FF400440B0890443AC8201A8FF
:101C9000FFF7BBFEA248874202D1DDF810A001E0A9
:101CA000DDF80CA00AEBCA0000EB0A1031688900CD
:101CB000B0FBF1F86420B8FBF0F0040120096421C6
:101CC00001FB1089322000EB0910B0FBF1F000F0AD
:101CD0000F0004432C8106B0BDE8F0874FF4165185
:101CE000016000218180C18001810C21418100219E
:101CF0008181704710B502460020108A4FF2FF0321
:101D000018400B884C8823438C882343CC8823437A
:101D10001843108210BD0021018041808180C18064
:101D2000704721B1828942F40052828104E08289A5
:101D30004DF6FF731A4082817047F0B503460024C8
:101D40000026002500201846C1F3421401F01F06AA
:101D5000012707FA06F5012C01D10C3004E0022C12
:101D600001D1103000E014301AB107682F4307602A
:101D700002E00768AF430760F0BD1AB1838A0B43E6
:101D8000838202E0838A8B4383827047028A4FF604
:101D9000F0731A400282028A0A43028270478289E3
:101DA0004FF2FF731A40828182890A438281704711
:101DB00021B1828942F00202828104E082894FF6D9
:101DC000FD731A4082817047028A4FF6DF731A4012
:101DD0000282028A0A430282704721B1028A42F4D7
:101DE0008042028204E0028A4BF6FF731A400282AC
:101DF0007047C1F308028280704701468888C0F3AB
:101E000008007047818941F0010181817047028B90
:101E1000D2B20283028B42EA012202837047028B14
:101E200002F47F420283028B0A430283704721B18E
:101E3000828A42F02002828204E0828A4FF6DF73B7
:101E40001A408282704721B1828A42F01002828257
:101E500004E0828A4FF6EF731A408282704721B104
:101E6000828A42F00802828204E0828A4FF6F77387
:101E70001A4082827047828A4FF6FB731A40828230
:101E8000828A0A438282704721B1828A42F002022A
:101E9000828204E0828A4FF6FD731A408282704784
:101EA0000246002013880B400BB1012000E0002007
:101EB0007047CA430280704770B502460B46002443
:101EC000002100250020C3F3421503F01F01012665
:101ED00006FA01F1012D02D19689314006E0022D6A
:101EE00002D1168A314001E0968A31401C12012647
:101EF00006FA04F41688344011B10CB1012000E058
:101F0000002070BD10B5002200230A120124944065
:101F1000A3B2DC43048010BD004C004000BCFFBFF6
:101F2000003801404FF0E021096921F004014FF031
:101F3000E0221161C21700EB5272C2F3C702234BB9
:101F40001A701946097801EB4102C2EBC1114FF634
:101F5000FF7202EAC1011E4A1180704701461C4A05
:101F600012884A434FF0E0235A6100229A6101220D
:101F70001A6100BF4FF0E022106900F001021AB1AF
:101F800000F48032002AF5D000224FF0E0231A61DD
:101F90009A61704701460D4A12784A434FF0E02398
:101FA0005A6100229A6101221A6100BF4FF0E022BB
:101FB000106900F001021AB100F48032002AF5D055
:101FC00000224FF0E0231A619A617047140000204C
:101FD00016000020014600BF7047C2B2A54B1A8010
:101FE00000BFA44A121F128802F04002002AF8D053
:101FF000704770B585B002460020002300BF0CE09A
:102000000A24B2FBF4F504FB152430340DF800402B
:10201000441CE0B20A24B2FBF4F2002AF0D10346D9
:10202000002006E01C1A641E1DF804400C54441CD9
:10203000E0B29842F6DB20B930260446451CE8B2EF
:102040000E5500240C5405B070BD2DE9F041054635
:1020500000260127284600F0A1FA00F0FF084446B8
:1020600009E0601E285C303800FB076607EB87003C
:102070004700601EC4B2002CF3DC3046BDE8F0819E
:1020800000B587B0012144F20500FFF72BFD4FF4A6
:102090000070ADF8180003208DF81A0018208DF894
:1020A0001B0006A97448FFF793F84FF48060ADF861
:1020B000180048208DF81B0006A96F48FFF788F824
:1020C0004FF4E13002900020ADF80C00ADF80E00A6
:1020D000ADF81000ADF814000C20ADF8120000208F
:1020E000ADF80000ADF802004FF40070ADF8040048
:1020F0000020ADF8060069465E48001FFFF7FAFDB4
:1021000002A95C48001FFFF79EFD01215948001FEE
:10211000FFF707FE07B000BD5649088000BF5549CC
:10212000091F098801F040010029F8D070470BE031
:1021300010F8011B4F4A118000BF4E49091F098842
:1021400001F040010029F8D001780029F0D1704752
:1021500000B50D20FFF7E0FF0A20FFF7DDFF00BD0F
:1021600000B5024609E010780A2802D1FFF7F0FF17
:1021700002E01078FFF7D0FF521C10780028F2D14F
:1021800000BD10B585B0044669462046FFF731FF13
:102190006846FFF7E5FF05B010BD30B505460C46B3
:1021A0002846FFF7DDFF2046FFF7EBFF33A0FFF7E0
:1021B000D7FF30BD70B588B004460D4613461C2BC2
:1021C00001DD08B070BD0021D81C0DF8001088207A
:1021D0008DF800008DF801408DF80230002205E0F6
:1021E000A95CD01C0DF80010501CC2B29A42F7DB5B
:1021F00000220BE0D81C1DF800001DF80210084456
:10220000C1B2D81C0DF80010501CC2B2D81C8242BA
:10221000F0DB002205E01DF80200FFF77DFF501CF7
:10222000C2B2181D8242F6DB00BFCAE713B584B004
:1022300004ACE0788DF80000A0788DF8010060789B
:102240008DF8020020788DF8030005ACE0788DF859
:102250000400A0788DF8050060788DF806002078DD
:102260008DF8070008226946A120FFF7A3FF06B0FA
:1022700010BD000004380140000801400A000000C1
:1022800008B54FF4C060FFF712F914208DF8000074
:1022900000208DF801008DF8020001208DF8030068
:1022A0006846FFF70AF908BD00B589B0FEF776F871
:1022B00006A8FEF791F901214E48FFF720FC4FF4E4
:1022C0000060ADF8040048208DF8070001A94A48D5
:1022D000FEF77EFF4FF48050ADF8040003208DF828
:1022E000060018208DF8070001A94348FEF770FF8B
:1022F00000208DF818008DF819008DF81A008DF85F
:102300001B008DF81C008DF81D008DF81E008DF847
:102310001F0008208DF8200007208DF821000420E0
:10232000ADF8220006A8FEF744F800208DF808005A
:102330008DF8090001208DF80A00A020ADF80C00EE
:102340000020ADF80E00ADF81000ADF81200ADF8A9
:10235000140001208DF8160002A8FEF7BCF8012138
:102360000220FEF749F909B000BD2DE9F04104460D
:102370000E46002500272148066000201F490872EC
:102380004872204600F00AF91C49887206E014F8E9
:10239000012B28466D1C19490B310A54207800285E
:1023A000F5D11648FEF739F90746002500E06D1C07
:1023B0003846FEF7DBF9012801D0FF2DF7D1BDE843
:1023C000F081002100220260426002728272C274B7
:1023D00000BF05E0002300F10B0253544A1CD1B2A8
:1023E0000829F7DB704710B5FFF74AFFFFF75CFFDE
:1023F00010BD000005000002000801401C00002084
:1024000030BF704720BF704740BF7047BFF36F8F2A
:102410007047BFF34F8F7047BFF35F8F704701DF87
:102420007047EFF31480704780F31488BFF36F8F09
:102430007047EFF30980704780F309887047EFF326
:102440000880704780F30888704762B6704772B69C
:102450007047EFF31080704771B6704761B67047F0
:10246000EFF31380704780F311887047EFF3128009
:10247000704740BA704700BA7047000003480047F1
:1024800003480449044A054B704700003101000825
:10249000900000209008002090040020900400206C
:1024A000704700000FB4044910B503AA029800F069
:1024B000F1F810BC5DF814FB180000202DE9F04184
:1024C0000E460446002020622046E168884730B36B
:1024D000252805D0D4E901219047206A401CF2E765
:1024E000E168204600278847050018D0A5F1410083
:1024F000192802D820354FF4006732462946204675
:102500002760FDF74FFE40B1012804D0F61D26F0EC
:1025100007060836D8E7361DD6E72846DAE7206AE8
:10252000BDE8F0812DE9F0410646002410687529C8
:10253000314616A510D0AFF30080002802DA4042E1
:1025400013A507E031688A0701D512A502E0490703
:1025500004D511A5012401E0AFF3008000210A2277
:1025600006F1240709E0B0FBF2FCB0FBF2F302FB3A
:102570001C00303078541846491C0028F3D12346FB
:102580002A463046BDE8F04100F02BB800000000BC
:102590002D0000002B0000002000000010B5431C9F
:1025A00002E010F8011B71B18107FAD14FF001323E
:1025B00002C88C1A8C4314EAC211F9D0C01A0A0658
:1025C00003D0C01E10BDC01A10BD0A0401D0801E69
:1025D00010BD0902FCD0401E10BD70477047704707
:1025E00070472DE9F0470D4699469246044600F1A2
:1025F00024080168880604D5E06921F010012160F3
:1026000000E00120A84201DD471B00E00027A1698E
:102610007A1902EB0900081AA0612078C00602D4DA
:102620002046AFF30080002608E0D4E901211AF823
:1026300006009047206A401C761C20624E45F4DB61
:102640002078C0060AD52046AFF3008006E0D4E922
:10265000012130209047206A401C2062381EA7F1DB
:102660000107F4DC07E0D4E9012118F805009047E0
:10267000206A401C2062281EA5F10105F3DC2046DB
:10268000AFF300802078000602D50220BDE8F08775
:102690000120FBE7074B70B50D467B4400F011F8B5
:1026A0000446284600F020F810B14FF0FF3070BD0E
:1026B000204670BD3DF9FFFF01694A1C02610878A0
:1026C000704700B58FB0CDE9013100210591054972
:1026D0007944CDE9031011466846FFF7EFFE0FB0CD
:1026E00000BD0000E5FFFFFF007B00F080007047A9
:1026F000754600F02BF8AE4605006946534620F0BB
:102700000700854618B020B5FFF7BAFEBDE82040A7
:102710004FF000064FF000074FF000084FF0000B9D
:1027200021F00701AC46ACE8C009ACE8C009ACE850
:10273000C009ACE8C0098D46704710B50446AFF338
:1027400000802046BDE81040FDF73EBD00487047C0
:102750003000002000000000010203040102030415
:102760000607080902040608882700080000002060
:102770001C0000006C010008A42700081C000020B9
:10278000740800008801000800000000000000003C
:102790000000000000000000000000000000000039
:0427A0000000000035
:0400000508000131BD
:00000001FF
